{"abi":[{"inputs":[{"internalType":"uint256","name":"minimum","type":"uint256"},{"internalType":"address","name":"creator","type":"address"}],"stateMutability":"nonpayable","type":"constructor"},{"inputs":[{"internalType":"uint256","name":"index","type":"uint256"}],"name":"approveRequest","outputs":[],"stateMutability":"nonpayable","type":"function"},{"inputs":[{"internalType":"address","name":"","type":"address"}],"name":"approvers","outputs":[{"internalType":"bool","name":"","type":"bool"}],"stateMutability":"view","type":"function"},{"inputs":[],"name":"approversCount","outputs":[{"internalType":"uint256","name":"","type":"uint256"}],"stateMutability":"view","type":"function"},{"inputs":[],"name":"contribute","outputs":[],"stateMutability":"payable","type":"function"},{"inputs":[{"internalType":"string","name":"description","type":"string"},{"internalType":"uint256","name":"value","type":"uint256"},{"internalType":"address payable","name":"recipient","type":"address"}],"name":"createRequest","outputs":[],"stateMutability":"nonpayable","type":"function"},{"inputs":[{"internalType":"uint256","name":"index","type":"uint256"}],"name":"finalizeRequest","outputs":[],"stateMutability":"nonpayable","type":"function"},{"inputs":[],"name":"getRequestsCount","outputs":[{"internalType":"uint256","name":"","type":"uint256"}],"stateMutability":"view","type":"function"},{"inputs":[],"name":"getSummary","outputs":[{"internalType":"uint256","name":"","type":"uint256"},{"internalType":"uint256","name":"","type":"uint256"},{"internalType":"uint256","name":"","type":"uint256"},{"internalType":"uint256","name":"","type":"uint256"},{"internalType":"address","name":"","type":"address"}],"stateMutability":"view","type":"function"},{"inputs":[],"name":"manager","outputs":[{"internalType":"address","name":"","type":"address"}],"stateMutability":"view","type":"function"},{"inputs":[],"name":"minimumContribution","outputs":[{"internalType":"uint256","name":"","type":"uint256"}],"stateMutability":"view","type":"function"},{"inputs":[{"internalType":"uint256","name":"","type":"uint256"}],"name":"requests","outputs":[{"internalType":"address payable","name":"recipient","type":"address"},{"internalType":"string","name":"description","type":"string"},{"internalType":"uint256","name":"value","type":"uint256"},{"internalType":"uint256","name":"approvalCount","type":"uint256"},{"internalType":"bool","name":"complete","type":"bool"}],"stateMutability":"view","type":"function"},{"inputs":[],"name":"requestsCount","outputs":[{"internalType":"uint256","name":"","type":"uint256"}],"stateMutability":"view","type":"function"}],"devdoc":{"kind":"dev","methods":{},"version":1},"evm":{"assembly":"    /* \"campaign.sol\":395:2649  contract Campaign {... */\n  mstore(0x40, 0x80)\n    /* \"campaign.sol\":782:783  0 */\n  0x00\n    /* \"campaign.sol\":762:783  uint requestIndex = 0 */\n  0x04\n  sstore\n    /* \"campaign.sol\":1007:1123  constructor(uint minimum, address creator) {... */\n  callvalue\n  dup1\n  iszero\n  tag_1\n  jumpi\n  0x00\n  dup1\n  revert\ntag_1:\n  pop\n  mload(0x40)\n  sub(codesize, bytecodeSize)\n  dup1\n  bytecodeSize\n  dup4\n  codecopy\n  dup2\n  dup2\n  add\n  0x40\n  mstore\n  dup2\n  add\n  swap1\n  tag_2\n  swap2\n  swap1\n  tag_3\n  jump\t// in\ntag_2:\n    /* \"campaign.sol\":1070:1077  creator */\n  dup1\n    /* \"campaign.sol\":1060:1067  manager */\n  0x00\n  dup1\n    /* \"campaign.sol\":1060:1077  manager = creator */\n  0x0100\n  exp\n  dup2\n  sload\n  dup2\n  0xffffffffffffffffffffffffffffffffffffffff\n  mul\n  not\n  and\n  swap1\n  dup4\n  0xffffffffffffffffffffffffffffffffffffffff\n  and\n  mul\n  or\n  swap1\n  sstore\n  pop\n    /* \"campaign.sol\":1109:1116  minimum */\n  dup2\n    /* \"campaign.sol\":1087:1106  minimumContribution */\n  0x01\n    /* \"campaign.sol\":1087:1116  minimumContribution = minimum */\n  dup2\n  swap1\n  sstore\n  pop\n    /* \"campaign.sol\":1007:1123  constructor(uint minimum, address creator) {... */\n  pop\n  pop\n    /* \"campaign.sol\":395:2649  contract Campaign {... */\n  jump(tag_6)\n    /* \"#utility.yul\":7:150   */\ntag_8:\n    /* \"#utility.yul\":64:69   */\n  0x00\n    /* \"#utility.yul\":95:101   */\n  dup2\n    /* \"#utility.yul\":89:102   */\n  mload\n    /* \"#utility.yul\":80:102   */\n  swap1\n  pop\n    /* \"#utility.yul\":111:144   */\n  tag_10\n    /* \"#utility.yul\":138:143   */\n  dup2\n    /* \"#utility.yul\":111:144   */\n  tag_11\n  jump\t// in\ntag_10:\n    /* \"#utility.yul\":70:150   */\n  swap3\n  swap2\n  pop\n  pop\n  jump\t// out\n    /* \"#utility.yul\":156:299   */\ntag_12:\n    /* \"#utility.yul\":213:218   */\n  0x00\n    /* \"#utility.yul\":244:250   */\n  dup2\n    /* \"#utility.yul\":238:251   */\n  mload\n    /* \"#utility.yul\":229:251   */\n  swap1\n  pop\n    /* \"#utility.yul\":260:293   */\n  tag_14\n    /* \"#utility.yul\":287:292   */\n  dup2\n    /* \"#utility.yul\":260:293   */\n  tag_15\n  jump\t// in\ntag_14:\n    /* \"#utility.yul\":219:299   */\n  swap3\n  swap2\n  pop\n  pop\n  jump\t// out\n    /* \"#utility.yul\":305:812   */\ntag_3:\n    /* \"#utility.yul\":384:390   */\n  0x00\n    /* \"#utility.yul\":392:398   */\n  dup1\n    /* \"#utility.yul\":441:443   */\n  0x40\n    /* \"#utility.yul\":429:438   */\n  dup4\n    /* \"#utility.yul\":420:427   */\n  dup6\n    /* \"#utility.yul\":416:439   */\n  sub\n    /* \"#utility.yul\":412:444   */\n  slt\n    /* \"#utility.yul\":409:411   */\n  iszero\n  tag_17\n  jumpi\n    /* \"#utility.yul\":447:526   */\n  tag_18\n  tag_19\n  jump\t// in\ntag_18:\n    /* \"#utility.yul\":409:411   */\ntag_17:\n    /* \"#utility.yul\":567:568   */\n  0x00\n    /* \"#utility.yul\":592:656   */\n  tag_20\n    /* \"#utility.yul\":648:655   */\n  dup6\n    /* \"#utility.yul\":639:645   */\n  dup3\n    /* \"#utility.yul\":628:637   */\n  dup7\n    /* \"#utility.yul\":624:646   */\n  add\n    /* \"#utility.yul\":592:656   */\n  tag_12\n  jump\t// in\ntag_20:\n    /* \"#utility.yul\":582:656   */\n  swap3\n  pop\n    /* \"#utility.yul\":538:666   */\n  pop\n    /* \"#utility.yul\":705:707   */\n  0x20\n    /* \"#utility.yul\":731:795   */\n  tag_21\n    /* \"#utility.yul\":787:794   */\n  dup6\n    /* \"#utility.yul\":778:784   */\n  dup3\n    /* \"#utility.yul\":767:776   */\n  dup7\n    /* \"#utility.yul\":763:785   */\n  add\n    /* \"#utility.yul\":731:795   */\n  tag_8\n  jump\t// in\ntag_21:\n    /* \"#utility.yul\":721:795   */\n  swap2\n  pop\n    /* \"#utility.yul\":676:805   */\n  pop\n    /* \"#utility.yul\":399:812   */\n  swap3\n  pop\n  swap3\n  swap1\n  pop\n  jump\t// out\n    /* \"#utility.yul\":899:995   */\ntag_24:\n    /* \"#utility.yul\":936:943   */\n  0x00\n    /* \"#utility.yul\":965:989   */\n  tag_26\n    /* \"#utility.yul\":983:988   */\n  dup3\n    /* \"#utility.yul\":965:989   */\n  tag_27\n  jump\t// in\ntag_26:\n    /* \"#utility.yul\":954:989   */\n  swap1\n  pop\n    /* \"#utility.yul\":944:995   */\n  swap2\n  swap1\n  pop\n  jump\t// out\n    /* \"#utility.yul\":1001:1127   */\ntag_27:\n    /* \"#utility.yul\":1038:1045   */\n  0x00\n    /* \"#utility.yul\":1078:1120   */\n  0xffffffffffffffffffffffffffffffffffffffff\n    /* \"#utility.yul\":1071:1076   */\n  dup3\n    /* \"#utility.yul\":1067:1121   */\n  and\n    /* \"#utility.yul\":1056:1121   */\n  swap1\n  pop\n    /* \"#utility.yul\":1046:1127   */\n  swap2\n  swap1\n  pop\n  jump\t// out\n    /* \"#utility.yul\":1133:1210   */\ntag_29:\n    /* \"#utility.yul\":1170:1177   */\n  0x00\n    /* \"#utility.yul\":1199:1204   */\n  dup2\n    /* \"#utility.yul\":1188:1204   */\n  swap1\n  pop\n    /* \"#utility.yul\":1178:1210   */\n  swap2\n  swap1\n  pop\n  jump\t// out\n    /* \"#utility.yul\":1339:1456   */\ntag_19:\n    /* \"#utility.yul\":1448:1449   */\n  0x00\n    /* \"#utility.yul\":1445:1446   */\n  dup1\n    /* \"#utility.yul\":1438:1450   */\n  revert\n    /* \"#utility.yul\":1462:1584   */\ntag_11:\n    /* \"#utility.yul\":1535:1559   */\n  tag_35\n    /* \"#utility.yul\":1553:1558   */\n  dup2\n    /* \"#utility.yul\":1535:1559   */\n  tag_24\n  jump\t// in\ntag_35:\n    /* \"#utility.yul\":1528:1533   */\n  dup2\n    /* \"#utility.yul\":1525:1560   */\n  eq\n    /* \"#utility.yul\":1515:1517   */\n  tag_36\n  jumpi\n    /* \"#utility.yul\":1574:1575   */\n  0x00\n    /* \"#utility.yul\":1571:1572   */\n  dup1\n    /* \"#utility.yul\":1564:1576   */\n  revert\n    /* \"#utility.yul\":1515:1517   */\ntag_36:\n    /* \"#utility.yul\":1505:1584   */\n  pop\n  jump\t// out\n    /* \"#utility.yul\":1590:1712   */\ntag_15:\n    /* \"#utility.yul\":1663:1687   */\n  tag_38\n    /* \"#utility.yul\":1681:1686   */\n  dup2\n    /* \"#utility.yul\":1663:1687   */\n  tag_29\n  jump\t// in\ntag_38:\n    /* \"#utility.yul\":1656:1661   */\n  dup2\n    /* \"#utility.yul\":1653:1688   */\n  eq\n    /* \"#utility.yul\":1643:1645   */\n  tag_39\n  jumpi\n    /* \"#utility.yul\":1702:1703   */\n  0x00\n    /* \"#utility.yul\":1699:1700   */\n  dup1\n    /* \"#utility.yul\":1692:1704   */\n  revert\n    /* \"#utility.yul\":1643:1645   */\ntag_39:\n    /* \"#utility.yul\":1633:1712   */\n  pop\n  jump\t// out\n    /* \"campaign.sol\":395:2649  contract Campaign {... */\ntag_6:\n  dataSize(sub_0)\n  dup1\n  dataOffset(sub_0)\n  0x00\n  codecopy\n  0x00\n  return\nstop\n\nsub_0: assembly {\n        /* \"campaign.sol\":395:2649  contract Campaign {... */\n      mstore(0x40, 0x80)\n      jumpi(tag_1, lt(calldatasize, 0x04))\n      shr(0xe0, calldataload(0x00))\n      dup1\n      0x82fde093\n      gt\n      tag_14\n      jumpi\n      dup1\n      0x82fde093\n      eq\n      tag_8\n      jumpi\n      dup1\n      0x8a9cfd55\n      eq\n      tag_9\n      jumpi\n      dup1\n      0x937e09b1\n      eq\n      tag_10\n      jumpi\n      dup1\n      0xd7bb99ba\n      eq\n      tag_11\n      jumpi\n      dup1\n      0xd7d1bbdb\n      eq\n      tag_12\n      jumpi\n      dup1\n      0xfbfa4b7f\n      eq\n      tag_13\n      jumpi\n      jump(tag_1)\n    tag_14:\n      dup1\n      0x03441006\n      eq\n      tag_2\n      jumpi\n      dup1\n      0x0a144391\n      eq\n      tag_3\n      jumpi\n      dup1\n      0x3410452a\n      eq\n      tag_4\n      jumpi\n      dup1\n      0x4051ddac\n      eq\n      tag_5\n      jumpi\n      dup1\n      0x481c6a75\n      eq\n      tag_6\n      jumpi\n      dup1\n      0x81d12c58\n      eq\n      tag_7\n      jumpi\n    tag_1:\n      0x00\n      dup1\n      revert\n        /* \"campaign.sol\":2011:2289  function finalizeRequest(uint index) public restricted {... */\n    tag_2:\n      callvalue\n      dup1\n      iszero\n      tag_15\n      jumpi\n      0x00\n      dup1\n      revert\n    tag_15:\n      pop\n      tag_16\n      0x04\n      dup1\n      calldatasize\n      sub\n      dup2\n      add\n      swap1\n      tag_17\n      swap2\n      swap1\n      tag_18\n      jump\t// in\n    tag_17:\n      tag_19\n      jump\t// in\n    tag_16:\n      stop\n        /* \"campaign.sol\":794:835  mapping(address => bool) public approvers */\n    tag_3:\n      callvalue\n      dup1\n      iszero\n      tag_20\n      jumpi\n      0x00\n      dup1\n      revert\n    tag_20:\n      pop\n      tag_21\n      0x04\n      dup1\n      calldatasize\n      sub\n      dup2\n      add\n      swap1\n      tag_22\n      swap2\n      swap1\n      tag_23\n      jump\t// in\n    tag_22:\n      tag_24\n      jump\t// in\n    tag_21:\n      mload(0x40)\n      tag_25\n      swap2\n      swap1\n      tag_26\n      jump\t// in\n    tag_25:\n      mload(0x40)\n      dup1\n      swap2\n      sub\n      swap1\n      return\n        /* \"campaign.sol\":2555:2647  function getRequestsCount() public view returns (uint) {... */\n    tag_4:\n      callvalue\n      dup1\n      iszero\n      tag_27\n      jumpi\n      0x00\n      dup1\n      revert\n    tag_27:\n      pop\n      tag_28\n      tag_29\n      jump\t// in\n    tag_28:\n      mload(0x40)\n      tag_30\n      swap2\n      swap1\n      tag_31\n      jump\t// in\n    tag_30:\n      mload(0x40)\n      dup1\n      swap2\n      sub\n      swap1\n      return\n        /* \"campaign.sol\":2295:2549  function getSummary() public view returns (uint, uint, uint, uint, address) {... */\n    tag_5:\n      callvalue\n      dup1\n      iszero\n      tag_32\n      jumpi\n      0x00\n      dup1\n      revert\n    tag_32:\n      pop\n      tag_33\n      tag_34\n      jump\t// in\n    tag_33:\n      mload(0x40)\n      tag_35\n      swap6\n      swap5\n      swap4\n      swap3\n      swap2\n      swap1\n      tag_36\n      jump\t// in\n    tag_35:\n      mload(0x40)\n      dup1\n      swap2\n      sub\n      swap1\n      return\n        /* \"campaign.sol\":629:651  address public manager */\n    tag_6:\n      callvalue\n      dup1\n      iszero\n      tag_37\n      jumpi\n      0x00\n      dup1\n      revert\n    tag_37:\n      pop\n      tag_38\n      tag_39\n      jump\t// in\n    tag_38:\n      mload(0x40)\n      tag_40\n      swap2\n      swap1\n      tag_41\n      jump\t// in\n    tag_40:\n      mload(0x40)\n      dup1\n      swap2\n      sub\n      swap1\n      return\n        /* \"campaign.sol\":841:881  mapping(uint => Request) public requests */\n    tag_7:\n      callvalue\n      dup1\n      iszero\n      tag_42\n      jumpi\n      0x00\n      dup1\n      revert\n    tag_42:\n      pop\n      tag_43\n      0x04\n      dup1\n      calldatasize\n      sub\n      dup2\n      add\n      swap1\n      tag_44\n      swap2\n      swap1\n      tag_18\n      jump\t// in\n    tag_44:\n      tag_45\n      jump\t// in\n    tag_43:\n      mload(0x40)\n      tag_46\n      swap6\n      swap5\n      swap4\n      swap3\n      swap2\n      swap1\n      tag_47\n      jump\t// in\n    tag_46:\n      mload(0x40)\n      dup1\n      swap2\n      sub\n      swap1\n      return\n        /* \"campaign.sol\":699:725  uint public approversCount */\n    tag_8:\n      callvalue\n      dup1\n      iszero\n      tag_48\n      jumpi\n      0x00\n      dup1\n      revert\n    tag_48:\n      pop\n      tag_49\n      tag_50\n      jump\t// in\n    tag_49:\n      mload(0x40)\n      tag_51\n      swap2\n      swap1\n      tag_31\n      jump\t// in\n    tag_51:\n      mload(0x40)\n      dup1\n      swap2\n      sub\n      swap1\n      return\n        /* \"campaign.sol\":1343:1728  function createRequest(string memory description, uint value, address payable recipient) public restricted {... */\n    tag_9:\n      callvalue\n      dup1\n      iszero\n      tag_52\n      jumpi\n      0x00\n      dup1\n      revert\n    tag_52:\n      pop\n      tag_53\n      0x04\n      dup1\n      calldatasize\n      sub\n      dup2\n      add\n      swap1\n      tag_54\n      swap2\n      swap1\n      tag_55\n      jump\t// in\n    tag_54:\n      tag_56\n      jump\t// in\n    tag_53:\n      stop\n        /* \"campaign.sol\":662:693  uint public minimumContribution */\n    tag_10:\n      callvalue\n      dup1\n      iszero\n      tag_57\n      jumpi\n      0x00\n      dup1\n      revert\n    tag_57:\n      pop\n      tag_58\n      tag_59\n      jump\t// in\n    tag_58:\n      mload(0x40)\n      tag_60\n      swap2\n      swap1\n      tag_31\n      jump\t// in\n    tag_60:\n      mload(0x40)\n      dup1\n      swap2\n      sub\n      swap1\n      return\n        /* \"campaign.sol\":1133:1333  function contribute() public payable {... */\n    tag_11:\n      tag_61\n      tag_62\n      jump\t// in\n    tag_61:\n      stop\n        /* \"campaign.sol\":1738:2001  function approveRequest(uint index) public {... */\n    tag_12:\n      callvalue\n      dup1\n      iszero\n      tag_63\n      jumpi\n      0x00\n      dup1\n      revert\n    tag_63:\n      pop\n      tag_64\n      0x04\n      dup1\n      calldatasize\n      sub\n      dup2\n      add\n      swap1\n      tag_65\n      swap2\n      swap1\n      tag_18\n      jump\t// in\n    tag_65:\n      tag_66\n      jump\t// in\n    tag_64:\n      stop\n        /* \"campaign.sol\":731:756  uint public requestsCount */\n    tag_13:\n      callvalue\n      dup1\n      iszero\n      tag_67\n      jumpi\n      0x00\n      dup1\n      revert\n    tag_67:\n      pop\n      tag_68\n      tag_69\n      jump\t// in\n    tag_68:\n      mload(0x40)\n      tag_70\n      swap2\n      swap1\n      tag_31\n      jump\t// in\n    tag_70:\n      mload(0x40)\n      dup1\n      swap2\n      sub\n      swap1\n      return\n        /* \"campaign.sol\":2011:2289  function finalizeRequest(uint index) public restricted {... */\n    tag_19:\n        /* \"campaign.sol\":944:951  manager */\n      0x00\n      dup1\n      sload\n      swap1\n      0x0100\n      exp\n      swap1\n      div\n      0xffffffffffffffffffffffffffffffffffffffff\n      and\n        /* \"campaign.sol\":930:951  msg.sender == manager */\n      0xffffffffffffffffffffffffffffffffffffffff\n      and\n        /* \"campaign.sol\":930:940  msg.sender */\n      caller\n        /* \"campaign.sol\":930:951  msg.sender == manager */\n      0xffffffffffffffffffffffffffffffffffffffff\n      and\n      eq\n        /* \"campaign.sol\":922:979  require(msg.sender == manager, \"manager privileges only\") */\n      tag_72\n      jumpi\n      mload(0x40)\n      0x08c379a000000000000000000000000000000000000000000000000000000000\n      dup2\n      mstore\n      0x04\n      add\n      tag_73\n      swap1\n      tag_74\n      jump\t// in\n    tag_73:\n      mload(0x40)\n      dup1\n      swap2\n      sub\n      swap1\n      revert\n    tag_72:\n        /* \"campaign.sol\":2076:2093  Request storage r */\n      0x00\n        /* \"campaign.sol\":2096:2104  requests */\n      0x06\n        /* \"campaign.sol\":2096:2111  requests[index] */\n      0x00\n        /* \"campaign.sol\":2105:2110  index */\n      dup4\n        /* \"campaign.sol\":2096:2111  requests[index] */\n      dup2\n      mstore\n      0x20\n      add\n      swap1\n      dup2\n      mstore\n      0x20\n      add\n      0x00\n      keccak256\n        /* \"campaign.sol\":2076:2111  Request storage r = requests[index] */\n      swap1\n      pop\n        /* \"campaign.sol\":2174:2175  2 */\n      0x02\n        /* \"campaign.sol\":2157:2171  approversCount */\n      dup1\n      sload\n        /* \"campaign.sol\":2157:2175  approversCount / 2 */\n      tag_76\n      swap2\n      swap1\n      tag_77\n      jump\t// in\n    tag_76:\n        /* \"campaign.sol\":2138:2139  r */\n      dup2\n        /* \"campaign.sol\":2138:2153  r.approvalCount */\n      0x03\n      add\n      sload\n        /* \"campaign.sol\":2138:2176  r.approvalCount > (approversCount / 2) */\n      gt\n        /* \"campaign.sol\":2130:2177  require(r.approvalCount > (approversCount / 2)) */\n      tag_78\n      jumpi\n      0x00\n      dup1\n      revert\n    tag_78:\n        /* \"campaign.sol\":2196:2197  r */\n      dup1\n        /* \"campaign.sol\":2196:2206  r.complete */\n      0x04\n      add\n      0x00\n      swap1\n      sload\n      swap1\n      0x0100\n      exp\n      swap1\n      div\n      0xff\n      and\n        /* \"campaign.sol\":2195:2206  !r.complete */\n      iszero\n        /* \"campaign.sol\":2187:2207  require(!r.complete) */\n      tag_79\n      jumpi\n      0x00\n      dup1\n      revert\n    tag_79:\n        /* \"campaign.sol\":2226:2227  r */\n      dup1\n        /* \"campaign.sol\":2226:2237  r.recipient */\n      0x00\n      add\n      0x00\n      swap1\n      sload\n      swap1\n      0x0100\n      exp\n      swap1\n      div\n      0xffffffffffffffffffffffffffffffffffffffff\n      and\n        /* \"campaign.sol\":2226:2246  r.recipient.transfer */\n      0xffffffffffffffffffffffffffffffffffffffff\n      and\n        /* \"campaign.sol\":2226:2255  r.recipient.transfer(r.value) */\n      0x08fc\n        /* \"campaign.sol\":2247:2248  r */\n      dup3\n        /* \"campaign.sol\":2247:2254  r.value */\n      0x02\n      add\n      sload\n        /* \"campaign.sol\":2226:2255  r.recipient.transfer(r.value) */\n      swap1\n      dup2\n      iszero\n      mul\n      swap1\n      mload(0x40)\n      0x00\n      mload(0x40)\n      dup1\n      dup4\n      sub\n      dup2\n      dup6\n      dup9\n      dup9\n      call\n      swap4\n      pop\n      pop\n      pop\n      pop\n      iszero\n      dup1\n      iszero\n      tag_81\n      jumpi\n      returndatasize\n      0x00\n      dup1\n      returndatacopy\n      revert(0x00, returndatasize)\n    tag_81:\n      pop\n        /* \"campaign.sol\":2278:2282  true */\n      0x01\n        /* \"campaign.sol\":2265:2266  r */\n      dup2\n        /* \"campaign.sol\":2265:2275  r.complete */\n      0x04\n      add\n      0x00\n        /* \"campaign.sol\":2265:2282  r.complete = true */\n      0x0100\n      exp\n      dup2\n      sload\n      dup2\n      0xff\n      mul\n      not\n      and\n      swap1\n      dup4\n      iszero\n      iszero\n      mul\n      or\n      swap1\n      sstore\n      pop\n        /* \"campaign.sol\":2066:2289  {... */\n      pop\n        /* \"campaign.sol\":2011:2289  function finalizeRequest(uint index) public restricted {... */\n      pop\n      jump\t// out\n        /* \"campaign.sol\":794:835  mapping(address => bool) public approvers */\n    tag_24:\n      mstore(0x20, 0x05)\n      dup1\n      0x00\n      mstore\n      keccak256(0x00, 0x40)\n      0x00\n      swap2\n      pop\n      sload\n      swap1\n      0x0100\n      exp\n      swap1\n      div\n      0xff\n      and\n      dup2\n      jump\t// out\n        /* \"campaign.sol\":2555:2647  function getRequestsCount() public view returns (uint) {... */\n    tag_29:\n        /* \"campaign.sol\":2604:2608  uint */\n      0x00\n        /* \"campaign.sol\":2627:2640  requestsCount */\n      sload(0x03)\n        /* \"campaign.sol\":2620:2640  return requestsCount */\n      swap1\n      pop\n        /* \"campaign.sol\":2555:2647  function getRequestsCount() public view returns (uint) {... */\n      swap1\n      jump\t// out\n        /* \"campaign.sol\":2295:2549  function getSummary() public view returns (uint, uint, uint, uint, address) {... */\n    tag_34:\n        /* \"campaign.sol\":2338:2342  uint */\n      0x00\n        /* \"campaign.sol\":2344:2348  uint */\n      dup1\n        /* \"campaign.sol\":2350:2354  uint */\n      0x00\n        /* \"campaign.sol\":2356:2360  uint */\n      dup1\n        /* \"campaign.sol\":2362:2369  address */\n      0x00\n        /* \"campaign.sol\":2402:2421  minimumContribution */\n      sload(0x01)\n        /* \"campaign.sol\":2435:2456  address(this).balance */\n      selfbalance\n        /* \"campaign.sol\":2470:2483  requestsCount */\n      sload(0x03)\n        /* \"campaign.sol\":2497:2511  approversCount */\n      sload(0x02)\n        /* \"campaign.sol\":2525:2532  manager */\n      0x00\n      dup1\n      sload\n      swap1\n      0x0100\n      exp\n      swap1\n      div\n      0xffffffffffffffffffffffffffffffffffffffff\n      and\n        /* \"campaign.sol\":2381:2542  return (... */\n      swap5\n      pop\n      swap5\n      pop\n      swap5\n      pop\n      swap5\n      pop\n      swap5\n      pop\n        /* \"campaign.sol\":2295:2549  function getSummary() public view returns (uint, uint, uint, uint, address) {... */\n      swap1\n      swap2\n      swap3\n      swap4\n      swap5\n      jump\t// out\n        /* \"campaign.sol\":629:651  address public manager */\n    tag_39:\n      0x00\n      dup1\n      sload\n      swap1\n      0x0100\n      exp\n      swap1\n      div\n      0xffffffffffffffffffffffffffffffffffffffff\n      and\n      dup2\n      jump\t// out\n        /* \"campaign.sol\":841:881  mapping(uint => Request) public requests */\n    tag_45:\n      mstore(0x20, 0x06)\n      dup1\n      0x00\n      mstore\n      keccak256(0x00, 0x40)\n      0x00\n      swap2\n      pop\n      swap1\n      pop\n      dup1\n      0x00\n      add\n      0x00\n      swap1\n      sload\n      swap1\n      0x0100\n      exp\n      swap1\n      div\n      0xffffffffffffffffffffffffffffffffffffffff\n      and\n      swap1\n      dup1\n      0x01\n      add\n      dup1\n      sload\n      tag_84\n      swap1\n      tag_85\n      jump\t// in\n    tag_84:\n      dup1\n      0x1f\n      add\n      0x20\n      dup1\n      swap2\n      div\n      mul\n      0x20\n      add\n      mload(0x40)\n      swap1\n      dup2\n      add\n      0x40\n      mstore\n      dup1\n      swap3\n      swap2\n      swap1\n      dup2\n      dup2\n      mstore\n      0x20\n      add\n      dup3\n      dup1\n      sload\n      tag_86\n      swap1\n      tag_85\n      jump\t// in\n    tag_86:\n      dup1\n      iszero\n      tag_87\n      jumpi\n      dup1\n      0x1f\n      lt\n      tag_88\n      jumpi\n      0x0100\n      dup1\n      dup4\n      sload\n      div\n      mul\n      dup4\n      mstore\n      swap2\n      0x20\n      add\n      swap2\n      jump(tag_87)\n    tag_88:\n      dup3\n      add\n      swap2\n      swap1\n      0x00\n      mstore\n      keccak256(0x00, 0x20)\n      swap1\n    tag_89:\n      dup2\n      sload\n      dup2\n      mstore\n      swap1\n      0x01\n      add\n      swap1\n      0x20\n      add\n      dup1\n      dup4\n      gt\n      tag_89\n      jumpi\n      dup3\n      swap1\n      sub\n      0x1f\n      and\n      dup3\n      add\n      swap2\n    tag_87:\n      pop\n      pop\n      pop\n      pop\n      pop\n      swap1\n      dup1\n      0x02\n      add\n      sload\n      swap1\n      dup1\n      0x03\n      add\n      sload\n      swap1\n      dup1\n      0x04\n      add\n      0x00\n      swap1\n      sload\n      swap1\n      0x0100\n      exp\n      swap1\n      div\n      0xff\n      and\n      swap1\n      pop\n      dup6\n      jump\t// out\n        /* \"campaign.sol\":699:725  uint public approversCount */\n    tag_50:\n      sload(0x02)\n      dup2\n      jump\t// out\n        /* \"campaign.sol\":1343:1728  function createRequest(string memory description, uint value, address payable recipient) public restricted {... */\n    tag_56:\n        /* \"campaign.sol\":944:951  manager */\n      0x00\n      dup1\n      sload\n      swap1\n      0x0100\n      exp\n      swap1\n      div\n      0xffffffffffffffffffffffffffffffffffffffff\n      and\n        /* \"campaign.sol\":930:951  msg.sender == manager */\n      0xffffffffffffffffffffffffffffffffffffffff\n      and\n        /* \"campaign.sol\":930:940  msg.sender */\n      caller\n        /* \"campaign.sol\":930:951  msg.sender == manager */\n      0xffffffffffffffffffffffffffffffffffffffff\n      and\n      eq\n        /* \"campaign.sol\":922:979  require(msg.sender == manager, \"manager privileges only\") */\n      tag_91\n      jumpi\n      mload(0x40)\n      0x08c379a000000000000000000000000000000000000000000000000000000000\n      dup2\n      mstore\n      0x04\n      add\n      tag_92\n      swap1\n      tag_74\n      jump\t// in\n    tag_92:\n      mload(0x40)\n      dup1\n      swap2\n      sub\n      swap1\n      revert\n    tag_91:\n        /* \"campaign.sol\":1460:1477  Request storage r */\n      0x00\n        /* \"campaign.sol\":1480:1488  requests */\n      0x06\n        /* \"campaign.sol\":1480:1502  requests[requestIndex] */\n      0x00\n        /* \"campaign.sol\":1489:1501  requestIndex */\n      sload(0x04)\n        /* \"campaign.sol\":1480:1502  requests[requestIndex] */\n      dup2\n      mstore\n      0x20\n      add\n      swap1\n      dup2\n      mstore\n      0x20\n      add\n      0x00\n      keccak256\n        /* \"campaign.sol\":1460:1502  Request storage r = requests[requestIndex] */\n      swap1\n      pop\n        /* \"campaign.sol\":1537:1548  description */\n      dup4\n        /* \"campaign.sol\":1521:1522  r */\n      dup2\n        /* \"campaign.sol\":1521:1534  r.description */\n      0x01\n      add\n        /* \"campaign.sol\":1521:1548  r.description = description */\n      swap1\n      dup1\n      mload\n      swap1\n      0x20\n      add\n      swap1\n      tag_94\n      swap3\n      swap2\n      swap1\n      tag_95\n      jump\t// in\n    tag_94:\n      pop\n        /* \"campaign.sol\":1572:1581  recipient */\n      dup2\n        /* \"campaign.sol\":1558:1559  r */\n      dup2\n        /* \"campaign.sol\":1558:1569  r.recipient */\n      0x00\n      add\n      0x00\n        /* \"campaign.sol\":1558:1581  r.recipient = recipient */\n      0x0100\n      exp\n      dup2\n      sload\n      dup2\n      0xffffffffffffffffffffffffffffffffffffffff\n      mul\n      not\n      and\n      swap1\n      dup4\n      0xffffffffffffffffffffffffffffffffffffffff\n      and\n      mul\n      or\n      swap1\n      sstore\n      pop\n        /* \"campaign.sol\":1601:1606  value */\n      dup3\n        /* \"campaign.sol\":1591:1592  r */\n      dup2\n        /* \"campaign.sol\":1591:1598  r.value */\n      0x02\n      add\n        /* \"campaign.sol\":1591:1606  r.value = value */\n      dup2\n      swap1\n      sstore\n      pop\n        /* \"campaign.sol\":1629:1634  false */\n      0x00\n        /* \"campaign.sol\":1616:1617  r */\n      dup2\n        /* \"campaign.sol\":1616:1626  r.complete */\n      0x04\n      add\n      0x00\n        /* \"campaign.sol\":1616:1634  r.complete = false */\n      0x0100\n      exp\n      dup2\n      sload\n      dup2\n      0xff\n      mul\n      not\n      and\n      swap1\n      dup4\n      iszero\n      iszero\n      mul\n      or\n      swap1\n      sstore\n      pop\n        /* \"campaign.sol\":1662:1663  0 */\n      0x00\n        /* \"campaign.sol\":1644:1645  r */\n      dup2\n        /* \"campaign.sol\":1644:1659  r.approvalCount */\n      0x03\n      add\n        /* \"campaign.sol\":1644:1663  r.approvalCount = 0 */\n      dup2\n      swap1\n      sstore\n      pop\n        /* \"campaign.sol\":1682:1694  requestIndex */\n      0x04\n      0x00\n        /* \"campaign.sol\":1682:1696  requestIndex++ */\n      dup2\n      sload\n      dup1\n      swap3\n      swap2\n      swap1\n      tag_96\n      swap1\n      tag_97\n      jump\t// in\n    tag_96:\n      swap2\n      swap1\n      pop\n      sstore\n      pop\n        /* \"campaign.sol\":1706:1719  requestsCount */\n      0x03\n      0x00\n        /* \"campaign.sol\":1706:1721  requestsCount++ */\n      dup2\n      sload\n      dup1\n      swap3\n      swap2\n      swap1\n      tag_98\n      swap1\n      tag_97\n      jump\t// in\n    tag_98:\n      swap2\n      swap1\n      pop\n      sstore\n      pop\n        /* \"campaign.sol\":1450:1728  {... */\n      pop\n        /* \"campaign.sol\":1343:1728  function createRequest(string memory description, uint value, address payable recipient) public restricted {... */\n      pop\n      pop\n      pop\n      jump\t// out\n        /* \"campaign.sol\":662:693  uint public minimumContribution */\n    tag_59:\n      sload(0x01)\n      dup2\n      jump\t// out\n        /* \"campaign.sol\":1133:1333  function contribute() public payable {... */\n    tag_62:\n        /* \"campaign.sol\":1200:1219  minimumContribution */\n      sload(0x01)\n        /* \"campaign.sol\":1188:1197  msg.value */\n      callvalue\n        /* \"campaign.sol\":1188:1219  msg.value > minimumContribution */\n      gt\n        /* \"campaign.sol\":1180:1253  require(msg.value > minimumContribution, \"minimum contribution required\") */\n      tag_100\n      jumpi\n      mload(0x40)\n      0x08c379a000000000000000000000000000000000000000000000000000000000\n      dup2\n      mstore\n      0x04\n      add\n      tag_101\n      swap1\n      tag_102\n      jump\t// in\n    tag_101:\n      mload(0x40)\n      dup1\n      swap2\n      sub\n      swap1\n      revert\n    tag_100:\n        /* \"campaign.sol\":1296:1300  true */\n      0x01\n        /* \"campaign.sol\":1272:1281  approvers */\n      0x05\n        /* \"campaign.sol\":1272:1293  approvers[msg.sender] */\n      0x00\n        /* \"campaign.sol\":1282:1292  msg.sender */\n      caller\n        /* \"campaign.sol\":1272:1293  approvers[msg.sender] */\n      0xffffffffffffffffffffffffffffffffffffffff\n      and\n      0xffffffffffffffffffffffffffffffffffffffff\n      and\n      dup2\n      mstore\n      0x20\n      add\n      swap1\n      dup2\n      mstore\n      0x20\n      add\n      0x00\n      keccak256\n      0x00\n        /* \"campaign.sol\":1272:1300  approvers[msg.sender] = true */\n      0x0100\n      exp\n      dup2\n      sload\n      dup2\n      0xff\n      mul\n      not\n      and\n      swap1\n      dup4\n      iszero\n      iszero\n      mul\n      or\n      swap1\n      sstore\n      pop\n        /* \"campaign.sol\":1310:1324  approversCount */\n      0x02\n      0x00\n        /* \"campaign.sol\":1310:1326  approversCount++ */\n      dup2\n      sload\n      dup1\n      swap3\n      swap2\n      swap1\n      tag_103\n      swap1\n      tag_97\n      jump\t// in\n    tag_103:\n      swap2\n      swap1\n      pop\n      sstore\n      pop\n        /* \"campaign.sol\":1133:1333  function contribute() public payable {... */\n      jump\t// out\n        /* \"campaign.sol\":1738:2001  function approveRequest(uint index) public {... */\n    tag_66:\n        /* \"campaign.sol\":1791:1808  Request storage r */\n      0x00\n        /* \"campaign.sol\":1811:1819  requests */\n      0x06\n        /* \"campaign.sol\":1811:1826  requests[index] */\n      0x00\n        /* \"campaign.sol\":1820:1825  index */\n      dup4\n        /* \"campaign.sol\":1811:1826  requests[index] */\n      dup2\n      mstore\n      0x20\n      add\n      swap1\n      dup2\n      mstore\n      0x20\n      add\n      0x00\n      keccak256\n        /* \"campaign.sol\":1791:1826  Request storage r = requests[index] */\n      swap1\n      pop\n        /* \"campaign.sol\":1853:1862  approvers */\n      0x05\n        /* \"campaign.sol\":1853:1874  approvers[msg.sender] */\n      0x00\n        /* \"campaign.sol\":1863:1873  msg.sender */\n      caller\n        /* \"campaign.sol\":1853:1874  approvers[msg.sender] */\n      0xffffffffffffffffffffffffffffffffffffffff\n      and\n      0xffffffffffffffffffffffffffffffffffffffff\n      and\n      dup2\n      mstore\n      0x20\n      add\n      swap1\n      dup2\n      mstore\n      0x20\n      add\n      0x00\n      keccak256\n      0x00\n      swap1\n      sload\n      swap1\n      0x0100\n      exp\n      swap1\n      div\n      0xff\n      and\n        /* \"campaign.sol\":1845:1875  require(approvers[msg.sender]) */\n      tag_105\n      jumpi\n      0x00\n      dup1\n      revert\n    tag_105:\n        /* \"campaign.sol\":1894:1895  r */\n      dup1\n        /* \"campaign.sol\":1894:1905  r.approvals */\n      0x05\n      add\n        /* \"campaign.sol\":1894:1917  r.approvals[msg.sender] */\n      0x00\n        /* \"campaign.sol\":1906:1916  msg.sender */\n      caller\n        /* \"campaign.sol\":1894:1917  r.approvals[msg.sender] */\n      0xffffffffffffffffffffffffffffffffffffffff\n      and\n      0xffffffffffffffffffffffffffffffffffffffff\n      and\n      dup2\n      mstore\n      0x20\n      add\n      swap1\n      dup2\n      mstore\n      0x20\n      add\n      0x00\n      keccak256\n      0x00\n      swap1\n      sload\n      swap1\n      0x0100\n      exp\n      swap1\n      div\n      0xff\n      and\n        /* \"campaign.sol\":1893:1917  !r.approvals[msg.sender] */\n      iszero\n        /* \"campaign.sol\":1885:1918  require(!r.approvals[msg.sender]) */\n      tag_106\n      jumpi\n      0x00\n      dup1\n      revert\n    tag_106:\n        /* \"campaign.sol\":1963:1967  true */\n      0x01\n        /* \"campaign.sol\":1937:1938  r */\n      dup2\n        /* \"campaign.sol\":1937:1948  r.approvals */\n      0x05\n      add\n        /* \"campaign.sol\":1937:1960  r.approvals[msg.sender] */\n      0x00\n        /* \"campaign.sol\":1949:1959  msg.sender */\n      caller\n        /* \"campaign.sol\":1937:1960  r.approvals[msg.sender] */\n      0xffffffffffffffffffffffffffffffffffffffff\n      and\n      0xffffffffffffffffffffffffffffffffffffffff\n      and\n      dup2\n      mstore\n      0x20\n      add\n      swap1\n      dup2\n      mstore\n      0x20\n      add\n      0x00\n      keccak256\n      0x00\n        /* \"campaign.sol\":1937:1967  r.approvals[msg.sender] = true */\n      0x0100\n      exp\n      dup2\n      sload\n      dup2\n      0xff\n      mul\n      not\n      and\n      swap1\n      dup4\n      iszero\n      iszero\n      mul\n      or\n      swap1\n      sstore\n      pop\n        /* \"campaign.sol\":1977:1978  r */\n      dup1\n        /* \"campaign.sol\":1977:1992  r.approvalCount */\n      0x03\n      add\n      0x00\n        /* \"campaign.sol\":1977:1994  r.approvalCount++ */\n      dup2\n      sload\n      dup1\n      swap3\n      swap2\n      swap1\n      tag_107\n      swap1\n      tag_97\n      jump\t// in\n    tag_107:\n      swap2\n      swap1\n      pop\n      sstore\n      pop\n        /* \"campaign.sol\":1781:2001  {... */\n      pop\n        /* \"campaign.sol\":1738:2001  function approveRequest(uint index) public {... */\n      pop\n      jump\t// out\n        /* \"campaign.sol\":731:756  uint public requestsCount */\n    tag_69:\n      sload(0x03)\n      dup2\n      jump\t// out\n    tag_95:\n      dup3\n      dup1\n      sload\n      tag_108\n      swap1\n      tag_85\n      jump\t// in\n    tag_108:\n      swap1\n      0x00\n      mstore\n      keccak256(0x00, 0x20)\n      swap1\n      0x1f\n      add\n      0x20\n      swap1\n      div\n      dup2\n      add\n      swap3\n      dup3\n      tag_110\n      jumpi\n      0x00\n      dup6\n      sstore\n      jump(tag_109)\n    tag_110:\n      dup3\n      0x1f\n      lt\n      tag_111\n      jumpi\n      dup1\n      mload\n      not(0xff)\n      and\n      dup4\n      dup1\n      add\n      or\n      dup6\n      sstore\n      jump(tag_109)\n    tag_111:\n      dup3\n      dup1\n      add\n      0x01\n      add\n      dup6\n      sstore\n      dup3\n      iszero\n      tag_109\n      jumpi\n      swap2\n      dup3\n      add\n    tag_112:\n      dup3\n      dup2\n      gt\n      iszero\n      tag_113\n      jumpi\n      dup3\n      mload\n      dup3\n      sstore\n      swap2\n      0x20\n      add\n      swap2\n      swap1\n      0x01\n      add\n      swap1\n      jump(tag_112)\n    tag_113:\n    tag_109:\n      pop\n      swap1\n      pop\n      tag_114\n      swap2\n      swap1\n      tag_115\n      jump\t// in\n    tag_114:\n      pop\n      swap1\n      jump\t// out\n    tag_115:\n    tag_116:\n      dup1\n      dup3\n      gt\n      iszero\n      tag_117\n      jumpi\n      0x00\n      dup2\n      0x00\n      swap1\n      sstore\n      pop\n      0x01\n      add\n      jump(tag_116)\n    tag_117:\n      pop\n      swap1\n      jump\t// out\n        /* \"#utility.yul\":7:419   */\n    tag_119:\n        /* \"#utility.yul\":85:90   */\n      0x00\n        /* \"#utility.yul\":110:176   */\n      tag_121\n        /* \"#utility.yul\":126:175   */\n      tag_122\n        /* \"#utility.yul\":168:174   */\n      dup5\n        /* \"#utility.yul\":126:175   */\n      tag_123\n      jump\t// in\n    tag_122:\n        /* \"#utility.yul\":110:176   */\n      tag_124\n      jump\t// in\n    tag_121:\n        /* \"#utility.yul\":101:176   */\n      swap1\n      pop\n        /* \"#utility.yul\":199:205   */\n      dup3\n        /* \"#utility.yul\":192:197   */\n      dup2\n        /* \"#utility.yul\":185:206   */\n      mstore\n        /* \"#utility.yul\":237:241   */\n      0x20\n        /* \"#utility.yul\":230:235   */\n      dup2\n        /* \"#utility.yul\":226:242   */\n      add\n        /* \"#utility.yul\":275:278   */\n      dup5\n        /* \"#utility.yul\":266:272   */\n      dup5\n        /* \"#utility.yul\":261:264   */\n      dup5\n        /* \"#utility.yul\":257:273   */\n      add\n        /* \"#utility.yul\":254:279   */\n      gt\n        /* \"#utility.yul\":251:253   */\n      iszero\n      tag_125\n      jumpi\n        /* \"#utility.yul\":282:361   */\n      tag_126\n      tag_127\n      jump\t// in\n    tag_126:\n        /* \"#utility.yul\":251:253   */\n    tag_125:\n        /* \"#utility.yul\":372:413   */\n      tag_128\n        /* \"#utility.yul\":406:412   */\n      dup5\n        /* \"#utility.yul\":401:404   */\n      dup3\n        /* \"#utility.yul\":396:399   */\n      dup6\n        /* \"#utility.yul\":372:413   */\n      tag_129\n      jump\t// in\n    tag_128:\n        /* \"#utility.yul\":91:419   */\n      pop\n      swap4\n      swap3\n      pop\n      pop\n      pop\n      jump\t// out\n        /* \"#utility.yul\":425:564   */\n    tag_130:\n        /* \"#utility.yul\":471:476   */\n      0x00\n        /* \"#utility.yul\":509:515   */\n      dup2\n        /* \"#utility.yul\":496:516   */\n      calldataload\n        /* \"#utility.yul\":487:516   */\n      swap1\n      pop\n        /* \"#utility.yul\":525:558   */\n      tag_132\n        /* \"#utility.yul\":552:557   */\n      dup2\n        /* \"#utility.yul\":525:558   */\n      tag_133\n      jump\t// in\n    tag_132:\n        /* \"#utility.yul\":477:564   */\n      swap3\n      swap2\n      pop\n      pop\n      jump\t// out\n        /* \"#utility.yul\":570:725   */\n    tag_134:\n        /* \"#utility.yul\":624:629   */\n      0x00\n        /* \"#utility.yul\":662:668   */\n      dup2\n        /* \"#utility.yul\":649:669   */\n      calldataload\n        /* \"#utility.yul\":640:669   */\n      swap1\n      pop\n        /* \"#utility.yul\":678:719   */\n      tag_136\n        /* \"#utility.yul\":713:718   */\n      dup2\n        /* \"#utility.yul\":678:719   */\n      tag_137\n      jump\t// in\n    tag_136:\n        /* \"#utility.yul\":630:725   */\n      swap3\n      swap2\n      pop\n      pop\n      jump\t// out\n        /* \"#utility.yul\":745:1085   */\n    tag_138:\n        /* \"#utility.yul\":801:806   */\n      0x00\n        /* \"#utility.yul\":850:853   */\n      dup3\n        /* \"#utility.yul\":843:847   */\n      0x1f\n        /* \"#utility.yul\":835:841   */\n      dup4\n        /* \"#utility.yul\":831:848   */\n      add\n        /* \"#utility.yul\":827:854   */\n      slt\n        /* \"#utility.yul\":817:819   */\n      tag_140\n      jumpi\n        /* \"#utility.yul\":858:937   */\n      tag_141\n      tag_142\n      jump\t// in\n    tag_141:\n        /* \"#utility.yul\":817:819   */\n    tag_140:\n        /* \"#utility.yul\":975:981   */\n      dup2\n        /* \"#utility.yul\":962:982   */\n      calldataload\n        /* \"#utility.yul\":1000:1079   */\n      tag_143\n        /* \"#utility.yul\":1075:1078   */\n      dup5\n        /* \"#utility.yul\":1067:1073   */\n      dup3\n        /* \"#utility.yul\":1060:1064   */\n      0x20\n        /* \"#utility.yul\":1052:1058   */\n      dup7\n        /* \"#utility.yul\":1048:1065   */\n      add\n        /* \"#utility.yul\":1000:1079   */\n      tag_119\n      jump\t// in\n    tag_143:\n        /* \"#utility.yul\":991:1079   */\n      swap2\n      pop\n        /* \"#utility.yul\":807:1085   */\n      pop\n      swap3\n      swap2\n      pop\n      pop\n      jump\t// out\n        /* \"#utility.yul\":1091:1230   */\n    tag_144:\n        /* \"#utility.yul\":1137:1142   */\n      0x00\n        /* \"#utility.yul\":1175:1181   */\n      dup2\n        /* \"#utility.yul\":1162:1182   */\n      calldataload\n        /* \"#utility.yul\":1153:1182   */\n      swap1\n      pop\n        /* \"#utility.yul\":1191:1224   */\n      tag_146\n        /* \"#utility.yul\":1218:1223   */\n      dup2\n        /* \"#utility.yul\":1191:1224   */\n      tag_147\n      jump\t// in\n    tag_146:\n        /* \"#utility.yul\":1143:1230   */\n      swap3\n      swap2\n      pop\n      pop\n      jump\t// out\n        /* \"#utility.yul\":1236:1565   */\n    tag_23:\n        /* \"#utility.yul\":1295:1301   */\n      0x00\n        /* \"#utility.yul\":1344:1346   */\n      0x20\n        /* \"#utility.yul\":1332:1341   */\n      dup3\n        /* \"#utility.yul\":1323:1330   */\n      dup5\n        /* \"#utility.yul\":1319:1342   */\n      sub\n        /* \"#utility.yul\":1315:1347   */\n      slt\n        /* \"#utility.yul\":1312:1314   */\n      iszero\n      tag_149\n      jumpi\n        /* \"#utility.yul\":1350:1429   */\n      tag_150\n      tag_151\n      jump\t// in\n    tag_150:\n        /* \"#utility.yul\":1312:1314   */\n    tag_149:\n        /* \"#utility.yul\":1470:1471   */\n      0x00\n        /* \"#utility.yul\":1495:1548   */\n      tag_152\n        /* \"#utility.yul\":1540:1547   */\n      dup5\n        /* \"#utility.yul\":1531:1537   */\n      dup3\n        /* \"#utility.yul\":1520:1529   */\n      dup6\n        /* \"#utility.yul\":1516:1538   */\n      add\n        /* \"#utility.yul\":1495:1548   */\n      tag_130\n      jump\t// in\n    tag_152:\n        /* \"#utility.yul\":1485:1548   */\n      swap2\n      pop\n        /* \"#utility.yul\":1441:1558   */\n      pop\n        /* \"#utility.yul\":1302:1565   */\n      swap3\n      swap2\n      pop\n      pop\n      jump\t// out\n        /* \"#utility.yul\":1571:2386   */\n    tag_55:\n        /* \"#utility.yul\":1666:1672   */\n      0x00\n        /* \"#utility.yul\":1674:1680   */\n      dup1\n        /* \"#utility.yul\":1682:1688   */\n      0x00\n        /* \"#utility.yul\":1731:1733   */\n      0x60\n        /* \"#utility.yul\":1719:1728   */\n      dup5\n        /* \"#utility.yul\":1710:1717   */\n      dup7\n        /* \"#utility.yul\":1706:1729   */\n      sub\n        /* \"#utility.yul\":1702:1734   */\n      slt\n        /* \"#utility.yul\":1699:1701   */\n      iszero\n      tag_154\n      jumpi\n        /* \"#utility.yul\":1737:1816   */\n      tag_155\n      tag_151\n      jump\t// in\n    tag_155:\n        /* \"#utility.yul\":1699:1701   */\n    tag_154:\n        /* \"#utility.yul\":1885:1886   */\n      0x00\n        /* \"#utility.yul\":1874:1883   */\n      dup5\n        /* \"#utility.yul\":1870:1887   */\n      add\n        /* \"#utility.yul\":1857:1888   */\n      calldataload\n        /* \"#utility.yul\":1915:1933   */\n      0xffffffffffffffff\n        /* \"#utility.yul\":1907:1913   */\n      dup2\n        /* \"#utility.yul\":1904:1934   */\n      gt\n        /* \"#utility.yul\":1901:1903   */\n      iszero\n      tag_156\n      jumpi\n        /* \"#utility.yul\":1937:2016   */\n      tag_157\n      tag_158\n      jump\t// in\n    tag_157:\n        /* \"#utility.yul\":1901:1903   */\n    tag_156:\n        /* \"#utility.yul\":2042:2105   */\n      tag_159\n        /* \"#utility.yul\":2097:2104   */\n      dup7\n        /* \"#utility.yul\":2088:2094   */\n      dup3\n        /* \"#utility.yul\":2077:2086   */\n      dup8\n        /* \"#utility.yul\":2073:2095   */\n      add\n        /* \"#utility.yul\":2042:2105   */\n      tag_138\n      jump\t// in\n    tag_159:\n        /* \"#utility.yul\":2032:2105   */\n      swap4\n      pop\n        /* \"#utility.yul\":1828:2115   */\n      pop\n        /* \"#utility.yul\":2154:2156   */\n      0x20\n        /* \"#utility.yul\":2180:2233   */\n      tag_160\n        /* \"#utility.yul\":2225:2232   */\n      dup7\n        /* \"#utility.yul\":2216:2222   */\n      dup3\n        /* \"#utility.yul\":2205:2214   */\n      dup8\n        /* \"#utility.yul\":2201:2223   */\n      add\n        /* \"#utility.yul\":2180:2233   */\n      tag_144\n      jump\t// in\n    tag_160:\n        /* \"#utility.yul\":2170:2233   */\n      swap3\n      pop\n        /* \"#utility.yul\":2125:2243   */\n      pop\n        /* \"#utility.yul\":2282:2284   */\n      0x40\n        /* \"#utility.yul\":2308:2369   */\n      tag_161\n        /* \"#utility.yul\":2361:2368   */\n      dup7\n        /* \"#utility.yul\":2352:2358   */\n      dup3\n        /* \"#utility.yul\":2341:2350   */\n      dup8\n        /* \"#utility.yul\":2337:2359   */\n      add\n        /* \"#utility.yul\":2308:2369   */\n      tag_134\n      jump\t// in\n    tag_161:\n        /* \"#utility.yul\":2298:2369   */\n      swap2\n      pop\n        /* \"#utility.yul\":2253:2379   */\n      pop\n        /* \"#utility.yul\":1689:2386   */\n      swap3\n      pop\n      swap3\n      pop\n      swap3\n      jump\t// out\n        /* \"#utility.yul\":2392:2721   */\n    tag_18:\n        /* \"#utility.yul\":2451:2457   */\n      0x00\n        /* \"#utility.yul\":2500:2502   */\n      0x20\n        /* \"#utility.yul\":2488:2497   */\n      dup3\n        /* \"#utility.yul\":2479:2486   */\n      dup5\n        /* \"#utility.yul\":2475:2498   */\n      sub\n        /* \"#utility.yul\":2471:2503   */\n      slt\n        /* \"#utility.yul\":2468:2470   */\n      iszero\n      tag_163\n      jumpi\n        /* \"#utility.yul\":2506:2585   */\n      tag_164\n      tag_151\n      jump\t// in\n    tag_164:\n        /* \"#utility.yul\":2468:2470   */\n    tag_163:\n        /* \"#utility.yul\":2626:2627   */\n      0x00\n        /* \"#utility.yul\":2651:2704   */\n      tag_165\n        /* \"#utility.yul\":2696:2703   */\n      dup5\n        /* \"#utility.yul\":2687:2693   */\n      dup3\n        /* \"#utility.yul\":2676:2685   */\n      dup6\n        /* \"#utility.yul\":2672:2694   */\n      add\n        /* \"#utility.yul\":2651:2704   */\n      tag_144\n      jump\t// in\n    tag_165:\n        /* \"#utility.yul\":2641:2704   */\n      swap2\n      pop\n        /* \"#utility.yul\":2597:2714   */\n      pop\n        /* \"#utility.yul\":2458:2721   */\n      swap3\n      swap2\n      pop\n      pop\n      jump\t// out\n        /* \"#utility.yul\":2727:2869   */\n    tag_166:\n        /* \"#utility.yul\":2830:2862   */\n      tag_168\n        /* \"#utility.yul\":2856:2861   */\n      dup2\n        /* \"#utility.yul\":2830:2862   */\n      tag_169\n      jump\t// in\n    tag_168:\n        /* \"#utility.yul\":2825:2828   */\n      dup3\n        /* \"#utility.yul\":2818:2863   */\n      mstore\n        /* \"#utility.yul\":2808:2869   */\n      pop\n      pop\n      jump\t// out\n        /* \"#utility.yul\":2875:2993   */\n    tag_170:\n        /* \"#utility.yul\":2962:2986   */\n      tag_172\n        /* \"#utility.yul\":2980:2985   */\n      dup2\n        /* \"#utility.yul\":2962:2986   */\n      tag_173\n      jump\t// in\n    tag_172:\n        /* \"#utility.yul\":2957:2960   */\n      dup3\n        /* \"#utility.yul\":2950:2987   */\n      mstore\n        /* \"#utility.yul\":2940:2993   */\n      pop\n      pop\n      jump\t// out\n        /* \"#utility.yul\":2999:3108   */\n    tag_174:\n        /* \"#utility.yul\":3080:3101   */\n      tag_176\n        /* \"#utility.yul\":3095:3100   */\n      dup2\n        /* \"#utility.yul\":3080:3101   */\n      tag_177\n      jump\t// in\n    tag_176:\n        /* \"#utility.yul\":3075:3078   */\n      dup3\n        /* \"#utility.yul\":3068:3102   */\n      mstore\n        /* \"#utility.yul\":3058:3108   */\n      pop\n      pop\n      jump\t// out\n        /* \"#utility.yul\":3114:3478   */\n    tag_178:\n        /* \"#utility.yul\":3202:3205   */\n      0x00\n        /* \"#utility.yul\":3230:3269   */\n      tag_180\n        /* \"#utility.yul\":3263:3268   */\n      dup3\n        /* \"#utility.yul\":3230:3269   */\n      tag_181\n      jump\t// in\n    tag_180:\n        /* \"#utility.yul\":3285:3356   */\n      tag_182\n        /* \"#utility.yul\":3349:3355   */\n      dup2\n        /* \"#utility.yul\":3344:3347   */\n      dup6\n        /* \"#utility.yul\":3285:3356   */\n      tag_183\n      jump\t// in\n    tag_182:\n        /* \"#utility.yul\":3278:3356   */\n      swap4\n      pop\n        /* \"#utility.yul\":3365:3417   */\n      tag_184\n        /* \"#utility.yul\":3410:3416   */\n      dup2\n        /* \"#utility.yul\":3405:3408   */\n      dup6\n        /* \"#utility.yul\":3398:3402   */\n      0x20\n        /* \"#utility.yul\":3391:3396   */\n      dup7\n        /* \"#utility.yul\":3387:3403   */\n      add\n        /* \"#utility.yul\":3365:3417   */\n      tag_185\n      jump\t// in\n    tag_184:\n        /* \"#utility.yul\":3442:3471   */\n      tag_186\n        /* \"#utility.yul\":3464:3470   */\n      dup2\n        /* \"#utility.yul\":3442:3471   */\n      tag_187\n      jump\t// in\n    tag_186:\n        /* \"#utility.yul\":3437:3440   */\n      dup5\n        /* \"#utility.yul\":3433:3472   */\n      add\n        /* \"#utility.yul\":3426:3472   */\n      swap2\n      pop\n        /* \"#utility.yul\":3206:3478   */\n      pop\n      swap3\n      swap2\n      pop\n      pop\n      jump\t// out\n        /* \"#utility.yul\":3484:3850   */\n    tag_188:\n        /* \"#utility.yul\":3626:3629   */\n      0x00\n        /* \"#utility.yul\":3647:3714   */\n      tag_190\n        /* \"#utility.yul\":3711:3713   */\n      0x17\n        /* \"#utility.yul\":3706:3709   */\n      dup4\n        /* \"#utility.yul\":3647:3714   */\n      tag_183\n      jump\t// in\n    tag_190:\n        /* \"#utility.yul\":3640:3714   */\n      swap2\n      pop\n        /* \"#utility.yul\":3723:3816   */\n      tag_191\n        /* \"#utility.yul\":3812:3815   */\n      dup3\n        /* \"#utility.yul\":3723:3816   */\n      tag_192\n      jump\t// in\n    tag_191:\n        /* \"#utility.yul\":3841:3843   */\n      0x20\n        /* \"#utility.yul\":3836:3839   */\n      dup3\n        /* \"#utility.yul\":3832:3844   */\n      add\n        /* \"#utility.yul\":3825:3844   */\n      swap1\n      pop\n        /* \"#utility.yul\":3630:3850   */\n      swap2\n      swap1\n      pop\n      jump\t// out\n        /* \"#utility.yul\":3856:4222   */\n    tag_193:\n        /* \"#utility.yul\":3998:4001   */\n      0x00\n        /* \"#utility.yul\":4019:4086   */\n      tag_195\n        /* \"#utility.yul\":4083:4085   */\n      0x1d\n        /* \"#utility.yul\":4078:4081   */\n      dup4\n        /* \"#utility.yul\":4019:4086   */\n      tag_183\n      jump\t// in\n    tag_195:\n        /* \"#utility.yul\":4012:4086   */\n      swap2\n      pop\n        /* \"#utility.yul\":4095:4188   */\n      tag_196\n        /* \"#utility.yul\":4184:4187   */\n      dup3\n        /* \"#utility.yul\":4095:4188   */\n      tag_197\n      jump\t// in\n    tag_196:\n        /* \"#utility.yul\":4213:4215   */\n      0x20\n        /* \"#utility.yul\":4208:4211   */\n      dup3\n        /* \"#utility.yul\":4204:4216   */\n      add\n        /* \"#utility.yul\":4197:4216   */\n      swap1\n      pop\n        /* \"#utility.yul\":4002:4222   */\n      swap2\n      swap1\n      pop\n      jump\t// out\n        /* \"#utility.yul\":4228:4346   */\n    tag_198:\n        /* \"#utility.yul\":4315:4339   */\n      tag_200\n        /* \"#utility.yul\":4333:4338   */\n      dup2\n        /* \"#utility.yul\":4315:4339   */\n      tag_201\n      jump\t// in\n    tag_200:\n        /* \"#utility.yul\":4310:4313   */\n      dup3\n        /* \"#utility.yul\":4303:4340   */\n      mstore\n        /* \"#utility.yul\":4293:4346   */\n      pop\n      pop\n      jump\t// out\n        /* \"#utility.yul\":4352:4574   */\n    tag_41:\n        /* \"#utility.yul\":4445:4449   */\n      0x00\n        /* \"#utility.yul\":4483:4485   */\n      0x20\n        /* \"#utility.yul\":4472:4481   */\n      dup3\n        /* \"#utility.yul\":4468:4486   */\n      add\n        /* \"#utility.yul\":4460:4486   */\n      swap1\n      pop\n        /* \"#utility.yul\":4496:4567   */\n      tag_203\n        /* \"#utility.yul\":4564:4565   */\n      0x00\n        /* \"#utility.yul\":4553:4562   */\n      dup4\n        /* \"#utility.yul\":4549:4566   */\n      add\n        /* \"#utility.yul\":4540:4546   */\n      dup5\n        /* \"#utility.yul\":4496:4567   */\n      tag_170\n      jump\t// in\n    tag_203:\n        /* \"#utility.yul\":4450:4574   */\n      swap3\n      swap2\n      pop\n      pop\n      jump\t// out\n        /* \"#utility.yul\":4580:5355   */\n    tag_47:\n        /* \"#utility.yul\":4815:4819   */\n      0x00\n        /* \"#utility.yul\":4853:4856   */\n      0xa0\n        /* \"#utility.yul\":4842:4851   */\n      dup3\n        /* \"#utility.yul\":4838:4857   */\n      add\n        /* \"#utility.yul\":4830:4857   */\n      swap1\n      pop\n        /* \"#utility.yul\":4867:4954   */\n      tag_205\n        /* \"#utility.yul\":4951:4952   */\n      0x00\n        /* \"#utility.yul\":4940:4949   */\n      dup4\n        /* \"#utility.yul\":4936:4953   */\n      add\n        /* \"#utility.yul\":4927:4933   */\n      dup9\n        /* \"#utility.yul\":4867:4954   */\n      tag_166\n      jump\t// in\n    tag_205:\n        /* \"#utility.yul\":5001:5010   */\n      dup2\n        /* \"#utility.yul\":4995:4999   */\n      dup2\n        /* \"#utility.yul\":4991:5011   */\n      sub\n        /* \"#utility.yul\":4986:4988   */\n      0x20\n        /* \"#utility.yul\":4975:4984   */\n      dup4\n        /* \"#utility.yul\":4971:4989   */\n      add\n        /* \"#utility.yul\":4964:5012   */\n      mstore\n        /* \"#utility.yul\":5029:5107   */\n      tag_206\n        /* \"#utility.yul\":5102:5106   */\n      dup2\n        /* \"#utility.yul\":5093:5099   */\n      dup8\n        /* \"#utility.yul\":5029:5107   */\n      tag_178\n      jump\t// in\n    tag_206:\n        /* \"#utility.yul\":5021:5107   */\n      swap1\n      pop\n        /* \"#utility.yul\":5117:5189   */\n      tag_207\n        /* \"#utility.yul\":5185:5187   */\n      0x40\n        /* \"#utility.yul\":5174:5183   */\n      dup4\n        /* \"#utility.yul\":5170:5188   */\n      add\n        /* \"#utility.yul\":5161:5167   */\n      dup7\n        /* \"#utility.yul\":5117:5189   */\n      tag_198\n      jump\t// in\n    tag_207:\n        /* \"#utility.yul\":5199:5271   */\n      tag_208\n        /* \"#utility.yul\":5267:5269   */\n      0x60\n        /* \"#utility.yul\":5256:5265   */\n      dup4\n        /* \"#utility.yul\":5252:5270   */\n      add\n        /* \"#utility.yul\":5243:5249   */\n      dup6\n        /* \"#utility.yul\":5199:5271   */\n      tag_198\n      jump\t// in\n    tag_208:\n        /* \"#utility.yul\":5281:5348   */\n      tag_209\n        /* \"#utility.yul\":5343:5346   */\n      0x80\n        /* \"#utility.yul\":5332:5341   */\n      dup4\n        /* \"#utility.yul\":5328:5347   */\n      add\n        /* \"#utility.yul\":5319:5325   */\n      dup5\n        /* \"#utility.yul\":5281:5348   */\n      tag_174\n      jump\t// in\n    tag_209:\n        /* \"#utility.yul\":4820:5355   */\n      swap7\n      swap6\n      pop\n      pop\n      pop\n      pop\n      pop\n      pop\n      jump\t// out\n        /* \"#utility.yul\":5361:5571   */\n    tag_26:\n        /* \"#utility.yul\":5448:5452   */\n      0x00\n        /* \"#utility.yul\":5486:5488   */\n      0x20\n        /* \"#utility.yul\":5475:5484   */\n      dup3\n        /* \"#utility.yul\":5471:5489   */\n      add\n        /* \"#utility.yul\":5463:5489   */\n      swap1\n      pop\n        /* \"#utility.yul\":5499:5564   */\n      tag_211\n        /* \"#utility.yul\":5561:5562   */\n      0x00\n        /* \"#utility.yul\":5550:5559   */\n      dup4\n        /* \"#utility.yul\":5546:5563   */\n      add\n        /* \"#utility.yul\":5537:5543   */\n      dup5\n        /* \"#utility.yul\":5499:5564   */\n      tag_174\n      jump\t// in\n    tag_211:\n        /* \"#utility.yul\":5453:5571   */\n      swap3\n      swap2\n      pop\n      pop\n      jump\t// out\n        /* \"#utility.yul\":5577:5996   */\n    tag_74:\n        /* \"#utility.yul\":5743:5747   */\n      0x00\n        /* \"#utility.yul\":5781:5783   */\n      0x20\n        /* \"#utility.yul\":5770:5779   */\n      dup3\n        /* \"#utility.yul\":5766:5784   */\n      add\n        /* \"#utility.yul\":5758:5784   */\n      swap1\n      pop\n        /* \"#utility.yul\":5830:5839   */\n      dup2\n        /* \"#utility.yul\":5824:5828   */\n      dup2\n        /* \"#utility.yul\":5820:5840   */\n      sub\n        /* \"#utility.yul\":5816:5817   */\n      0x00\n        /* \"#utility.yul\":5805:5814   */\n      dup4\n        /* \"#utility.yul\":5801:5818   */\n      add\n        /* \"#utility.yul\":5794:5841   */\n      mstore\n        /* \"#utility.yul\":5858:5989   */\n      tag_213\n        /* \"#utility.yul\":5984:5988   */\n      dup2\n        /* \"#utility.yul\":5858:5989   */\n      tag_188\n      jump\t// in\n    tag_213:\n        /* \"#utility.yul\":5850:5989   */\n      swap1\n      pop\n        /* \"#utility.yul\":5748:5996   */\n      swap2\n      swap1\n      pop\n      jump\t// out\n        /* \"#utility.yul\":6002:6421   */\n    tag_102:\n        /* \"#utility.yul\":6168:6172   */\n      0x00\n        /* \"#utility.yul\":6206:6208   */\n      0x20\n        /* \"#utility.yul\":6195:6204   */\n      dup3\n        /* \"#utility.yul\":6191:6209   */\n      add\n        /* \"#utility.yul\":6183:6209   */\n      swap1\n      pop\n        /* \"#utility.yul\":6255:6264   */\n      dup2\n        /* \"#utility.yul\":6249:6253   */\n      dup2\n        /* \"#utility.yul\":6245:6265   */\n      sub\n        /* \"#utility.yul\":6241:6242   */\n      0x00\n        /* \"#utility.yul\":6230:6239   */\n      dup4\n        /* \"#utility.yul\":6226:6243   */\n      add\n        /* \"#utility.yul\":6219:6266   */\n      mstore\n        /* \"#utility.yul\":6283:6414   */\n      tag_215\n        /* \"#utility.yul\":6409:6413   */\n      dup2\n        /* \"#utility.yul\":6283:6414   */\n      tag_193\n      jump\t// in\n    tag_215:\n        /* \"#utility.yul\":6275:6414   */\n      swap1\n      pop\n        /* \"#utility.yul\":6173:6421   */\n      swap2\n      swap1\n      pop\n      jump\t// out\n        /* \"#utility.yul\":6427:6649   */\n    tag_31:\n        /* \"#utility.yul\":6520:6524   */\n      0x00\n        /* \"#utility.yul\":6558:6560   */\n      0x20\n        /* \"#utility.yul\":6547:6556   */\n      dup3\n        /* \"#utility.yul\":6543:6561   */\n      add\n        /* \"#utility.yul\":6535:6561   */\n      swap1\n      pop\n        /* \"#utility.yul\":6571:6642   */\n      tag_217\n        /* \"#utility.yul\":6639:6640   */\n      0x00\n        /* \"#utility.yul\":6628:6637   */\n      dup4\n        /* \"#utility.yul\":6624:6641   */\n      add\n        /* \"#utility.yul\":6615:6621   */\n      dup5\n        /* \"#utility.yul\":6571:6642   */\n      tag_198\n      jump\t// in\n    tag_217:\n        /* \"#utility.yul\":6525:6649   */\n      swap3\n      swap2\n      pop\n      pop\n      jump\t// out\n        /* \"#utility.yul\":6655:7319   */\n    tag_36:\n        /* \"#utility.yul\":6860:6864   */\n      0x00\n        /* \"#utility.yul\":6898:6901   */\n      0xa0\n        /* \"#utility.yul\":6887:6896   */\n      dup3\n        /* \"#utility.yul\":6883:6902   */\n      add\n        /* \"#utility.yul\":6875:6902   */\n      swap1\n      pop\n        /* \"#utility.yul\":6912:6983   */\n      tag_219\n        /* \"#utility.yul\":6980:6981   */\n      0x00\n        /* \"#utility.yul\":6969:6978   */\n      dup4\n        /* \"#utility.yul\":6965:6982   */\n      add\n        /* \"#utility.yul\":6956:6962   */\n      dup9\n        /* \"#utility.yul\":6912:6983   */\n      tag_198\n      jump\t// in\n    tag_219:\n        /* \"#utility.yul\":6993:7065   */\n      tag_220\n        /* \"#utility.yul\":7061:7063   */\n      0x20\n        /* \"#utility.yul\":7050:7059   */\n      dup4\n        /* \"#utility.yul\":7046:7064   */\n      add\n        /* \"#utility.yul\":7037:7043   */\n      dup8\n        /* \"#utility.yul\":6993:7065   */\n      tag_198\n      jump\t// in\n    tag_220:\n        /* \"#utility.yul\":7075:7147   */\n      tag_221\n        /* \"#utility.yul\":7143:7145   */\n      0x40\n        /* \"#utility.yul\":7132:7141   */\n      dup4\n        /* \"#utility.yul\":7128:7146   */\n      add\n        /* \"#utility.yul\":7119:7125   */\n      dup7\n        /* \"#utility.yul\":7075:7147   */\n      tag_198\n      jump\t// in\n    tag_221:\n        /* \"#utility.yul\":7157:7229   */\n      tag_222\n        /* \"#utility.yul\":7225:7227   */\n      0x60\n        /* \"#utility.yul\":7214:7223   */\n      dup4\n        /* \"#utility.yul\":7210:7228   */\n      add\n        /* \"#utility.yul\":7201:7207   */\n      dup6\n        /* \"#utility.yul\":7157:7229   */\n      tag_198\n      jump\t// in\n    tag_222:\n        /* \"#utility.yul\":7239:7312   */\n      tag_223\n        /* \"#utility.yul\":7307:7310   */\n      0x80\n        /* \"#utility.yul\":7296:7305   */\n      dup4\n        /* \"#utility.yul\":7292:7311   */\n      add\n        /* \"#utility.yul\":7283:7289   */\n      dup5\n        /* \"#utility.yul\":7239:7312   */\n      tag_170\n      jump\t// in\n    tag_223:\n        /* \"#utility.yul\":6865:7319   */\n      swap7\n      swap6\n      pop\n      pop\n      pop\n      pop\n      pop\n      pop\n      jump\t// out\n        /* \"#utility.yul\":7325:7454   */\n    tag_124:\n        /* \"#utility.yul\":7359:7365   */\n      0x00\n        /* \"#utility.yul\":7386:7406   */\n      tag_225\n      tag_226\n      jump\t// in\n    tag_225:\n        /* \"#utility.yul\":7376:7406   */\n      swap1\n      pop\n        /* \"#utility.yul\":7415:7448   */\n      tag_227\n        /* \"#utility.yul\":7443:7447   */\n      dup3\n        /* \"#utility.yul\":7435:7441   */\n      dup3\n        /* \"#utility.yul\":7415:7448   */\n      tag_228\n      jump\t// in\n    tag_227:\n        /* \"#utility.yul\":7366:7454   */\n      swap2\n      swap1\n      pop\n      jump\t// out\n        /* \"#utility.yul\":7460:7535   */\n    tag_226:\n        /* \"#utility.yul\":7493:7499   */\n      0x00\n        /* \"#utility.yul\":7526:7528   */\n      0x40\n        /* \"#utility.yul\":7520:7529   */\n      mload\n        /* \"#utility.yul\":7510:7529   */\n      swap1\n      pop\n        /* \"#utility.yul\":7500:7535   */\n      swap1\n      jump\t// out\n        /* \"#utility.yul\":7541:7849   */\n    tag_123:\n        /* \"#utility.yul\":7603:7607   */\n      0x00\n        /* \"#utility.yul\":7693:7711   */\n      0xffffffffffffffff\n        /* \"#utility.yul\":7685:7691   */\n      dup3\n        /* \"#utility.yul\":7682:7712   */\n      gt\n        /* \"#utility.yul\":7679:7681   */\n      iszero\n      tag_231\n      jumpi\n        /* \"#utility.yul\":7715:7733   */\n      tag_232\n      tag_233\n      jump\t// in\n    tag_232:\n        /* \"#utility.yul\":7679:7681   */\n    tag_231:\n        /* \"#utility.yul\":7753:7782   */\n      tag_234\n        /* \"#utility.yul\":7775:7781   */\n      dup3\n        /* \"#utility.yul\":7753:7782   */\n      tag_187\n      jump\t// in\n    tag_234:\n        /* \"#utility.yul\":7745:7782   */\n      swap1\n      pop\n        /* \"#utility.yul\":7837:7841   */\n      0x20\n        /* \"#utility.yul\":7831:7835   */\n      dup2\n        /* \"#utility.yul\":7827:7842   */\n      add\n        /* \"#utility.yul\":7819:7842   */\n      swap1\n      pop\n        /* \"#utility.yul\":7608:7849   */\n      swap2\n      swap1\n      pop\n      jump\t// out\n        /* \"#utility.yul\":7855:7954   */\n    tag_181:\n        /* \"#utility.yul\":7907:7913   */\n      0x00\n        /* \"#utility.yul\":7941:7946   */\n      dup2\n        /* \"#utility.yul\":7935:7947   */\n      mload\n        /* \"#utility.yul\":7925:7947   */\n      swap1\n      pop\n        /* \"#utility.yul\":7914:7954   */\n      swap2\n      swap1\n      pop\n      jump\t// out\n        /* \"#utility.yul\":7960:8129   */\n    tag_183:\n        /* \"#utility.yul\":8044:8055   */\n      0x00\n        /* \"#utility.yul\":8078:8084   */\n      dup3\n        /* \"#utility.yul\":8073:8076   */\n      dup3\n        /* \"#utility.yul\":8066:8085   */\n      mstore\n        /* \"#utility.yul\":8118:8122   */\n      0x20\n        /* \"#utility.yul\":8113:8116   */\n      dup3\n        /* \"#utility.yul\":8109:8123   */\n      add\n        /* \"#utility.yul\":8094:8123   */\n      swap1\n      pop\n        /* \"#utility.yul\":8056:8129   */\n      swap3\n      swap2\n      pop\n      pop\n      jump\t// out\n        /* \"#utility.yul\":8135:8320   */\n    tag_77:\n        /* \"#utility.yul\":8175:8176   */\n      0x00\n        /* \"#utility.yul\":8192:8212   */\n      tag_238\n        /* \"#utility.yul\":8210:8211   */\n      dup3\n        /* \"#utility.yul\":8192:8212   */\n      tag_201\n      jump\t// in\n    tag_238:\n        /* \"#utility.yul\":8187:8212   */\n      swap2\n      pop\n        /* \"#utility.yul\":8226:8246   */\n      tag_239\n        /* \"#utility.yul\":8244:8245   */\n      dup4\n        /* \"#utility.yul\":8226:8246   */\n      tag_201\n      jump\t// in\n    tag_239:\n        /* \"#utility.yul\":8221:8246   */\n      swap3\n      pop\n        /* \"#utility.yul\":8265:8266   */\n      dup3\n        /* \"#utility.yul\":8255:8257   */\n      tag_240\n      jumpi\n        /* \"#utility.yul\":8270:8288   */\n      tag_241\n      tag_242\n      jump\t// in\n    tag_241:\n        /* \"#utility.yul\":8255:8257   */\n    tag_240:\n        /* \"#utility.yul\":8312:8313   */\n      dup3\n        /* \"#utility.yul\":8309:8310   */\n      dup3\n        /* \"#utility.yul\":8305:8314   */\n      div\n        /* \"#utility.yul\":8300:8314   */\n      swap1\n      pop\n        /* \"#utility.yul\":8177:8320   */\n      swap3\n      swap2\n      pop\n      pop\n      jump\t// out\n        /* \"#utility.yul\":8326:8422   */\n    tag_173:\n        /* \"#utility.yul\":8363:8370   */\n      0x00\n        /* \"#utility.yul\":8392:8416   */\n      tag_244\n        /* \"#utility.yul\":8410:8415   */\n      dup3\n        /* \"#utility.yul\":8392:8416   */\n      tag_245\n      jump\t// in\n    tag_244:\n        /* \"#utility.yul\":8381:8416   */\n      swap1\n      pop\n        /* \"#utility.yul\":8371:8422   */\n      swap2\n      swap1\n      pop\n      jump\t// out\n        /* \"#utility.yul\":8428:8532   */\n    tag_169:\n        /* \"#utility.yul\":8473:8480   */\n      0x00\n        /* \"#utility.yul\":8502:8526   */\n      tag_247\n        /* \"#utility.yul\":8520:8525   */\n      dup3\n        /* \"#utility.yul\":8502:8526   */\n      tag_245\n      jump\t// in\n    tag_247:\n        /* \"#utility.yul\":8491:8526   */\n      swap1\n      pop\n        /* \"#utility.yul\":8481:8532   */\n      swap2\n      swap1\n      pop\n      jump\t// out\n        /* \"#utility.yul\":8538:8628   */\n    tag_177:\n        /* \"#utility.yul\":8572:8579   */\n      0x00\n        /* \"#utility.yul\":8615:8620   */\n      dup2\n        /* \"#utility.yul\":8608:8621   */\n      iszero\n        /* \"#utility.yul\":8601:8622   */\n      iszero\n        /* \"#utility.yul\":8590:8622   */\n      swap1\n      pop\n        /* \"#utility.yul\":8580:8628   */\n      swap2\n      swap1\n      pop\n      jump\t// out\n        /* \"#utility.yul\":8634:8760   */\n    tag_245:\n        /* \"#utility.yul\":8671:8678   */\n      0x00\n        /* \"#utility.yul\":8711:8753   */\n      0xffffffffffffffffffffffffffffffffffffffff\n        /* \"#utility.yul\":8704:8709   */\n      dup3\n        /* \"#utility.yul\":8700:8754   */\n      and\n        /* \"#utility.yul\":8689:8754   */\n      swap1\n      pop\n        /* \"#utility.yul\":8679:8760   */\n      swap2\n      swap1\n      pop\n      jump\t// out\n        /* \"#utility.yul\":8766:8843   */\n    tag_201:\n        /* \"#utility.yul\":8803:8810   */\n      0x00\n        /* \"#utility.yul\":8832:8837   */\n      dup2\n        /* \"#utility.yul\":8821:8837   */\n      swap1\n      pop\n        /* \"#utility.yul\":8811:8843   */\n      swap2\n      swap1\n      pop\n      jump\t// out\n        /* \"#utility.yul\":8849:9003   */\n    tag_129:\n        /* \"#utility.yul\":8933:8939   */\n      dup3\n        /* \"#utility.yul\":8928:8931   */\n      dup2\n        /* \"#utility.yul\":8923:8926   */\n      dup4\n        /* \"#utility.yul\":8910:8940   */\n      calldatacopy\n        /* \"#utility.yul\":8995:8996   */\n      0x00\n        /* \"#utility.yul\":8986:8992   */\n      dup4\n        /* \"#utility.yul\":8981:8984   */\n      dup4\n        /* \"#utility.yul\":8977:8993   */\n      add\n        /* \"#utility.yul\":8970:8997   */\n      mstore\n        /* \"#utility.yul\":8900:9003   */\n      pop\n      pop\n      pop\n      jump\t// out\n        /* \"#utility.yul\":9009:9316   */\n    tag_185:\n        /* \"#utility.yul\":9077:9078   */\n      0x00\n        /* \"#utility.yul\":9087:9200   */\n    tag_253:\n        /* \"#utility.yul\":9101:9107   */\n      dup4\n        /* \"#utility.yul\":9098:9099   */\n      dup2\n        /* \"#utility.yul\":9095:9108   */\n      lt\n        /* \"#utility.yul\":9087:9200   */\n      iszero\n      tag_255\n      jumpi\n        /* \"#utility.yul\":9186:9187   */\n      dup1\n        /* \"#utility.yul\":9181:9184   */\n      dup3\n        /* \"#utility.yul\":9177:9188   */\n      add\n        /* \"#utility.yul\":9171:9189   */\n      mload\n        /* \"#utility.yul\":9167:9168   */\n      dup2\n        /* \"#utility.yul\":9162:9165   */\n      dup5\n        /* \"#utility.yul\":9158:9169   */\n      add\n        /* \"#utility.yul\":9151:9190   */\n      mstore\n        /* \"#utility.yul\":9123:9125   */\n      0x20\n        /* \"#utility.yul\":9120:9121   */\n      dup2\n        /* \"#utility.yul\":9116:9126   */\n      add\n        /* \"#utility.yul\":9111:9126   */\n      swap1\n      pop\n        /* \"#utility.yul\":9087:9200   */\n      jump(tag_253)\n    tag_255:\n        /* \"#utility.yul\":9218:9224   */\n      dup4\n        /* \"#utility.yul\":9215:9216   */\n      dup2\n        /* \"#utility.yul\":9212:9225   */\n      gt\n        /* \"#utility.yul\":9209:9211   */\n      iszero\n      tag_256\n      jumpi\n        /* \"#utility.yul\":9298:9299   */\n      0x00\n        /* \"#utility.yul\":9289:9295   */\n      dup5\n        /* \"#utility.yul\":9284:9287   */\n      dup5\n        /* \"#utility.yul\":9280:9296   */\n      add\n        /* \"#utility.yul\":9273:9300   */\n      mstore\n        /* \"#utility.yul\":9209:9211   */\n    tag_256:\n        /* \"#utility.yul\":9058:9316   */\n      pop\n      pop\n      pop\n      pop\n      jump\t// out\n        /* \"#utility.yul\":9322:9642   */\n    tag_85:\n        /* \"#utility.yul\":9366:9372   */\n      0x00\n        /* \"#utility.yul\":9403:9404   */\n      0x02\n        /* \"#utility.yul\":9397:9401   */\n      dup3\n        /* \"#utility.yul\":9393:9405   */\n      div\n        /* \"#utility.yul\":9383:9405   */\n      swap1\n      pop\n        /* \"#utility.yul\":9450:9451   */\n      0x01\n        /* \"#utility.yul\":9444:9448   */\n      dup3\n        /* \"#utility.yul\":9440:9452   */\n      and\n        /* \"#utility.yul\":9471:9489   */\n      dup1\n        /* \"#utility.yul\":9461:9463   */\n      tag_258\n      jumpi\n        /* \"#utility.yul\":9527:9531   */\n      0x7f\n        /* \"#utility.yul\":9519:9525   */\n      dup3\n        /* \"#utility.yul\":9515:9532   */\n      and\n        /* \"#utility.yul\":9505:9532   */\n      swap2\n      pop\n        /* \"#utility.yul\":9461:9463   */\n    tag_258:\n        /* \"#utility.yul\":9589:9591   */\n      0x20\n        /* \"#utility.yul\":9581:9587   */\n      dup3\n        /* \"#utility.yul\":9578:9592   */\n      lt\n        /* \"#utility.yul\":9558:9576   */\n      dup2\n        /* \"#utility.yul\":9555:9593   */\n      eq\n        /* \"#utility.yul\":9552:9554   */\n      iszero\n      tag_259\n      jumpi\n        /* \"#utility.yul\":9608:9626   */\n      tag_260\n      tag_261\n      jump\t// in\n    tag_260:\n        /* \"#utility.yul\":9552:9554   */\n    tag_259:\n        /* \"#utility.yul\":9373:9642   */\n      pop\n      swap2\n      swap1\n      pop\n      jump\t// out\n        /* \"#utility.yul\":9648:9929   */\n    tag_228:\n        /* \"#utility.yul\":9731:9758   */\n      tag_263\n        /* \"#utility.yul\":9753:9757   */\n      dup3\n        /* \"#utility.yul\":9731:9758   */\n      tag_187\n      jump\t// in\n    tag_263:\n        /* \"#utility.yul\":9723:9729   */\n      dup2\n        /* \"#utility.yul\":9719:9759   */\n      add\n        /* \"#utility.yul\":9861:9867   */\n      dup2\n        /* \"#utility.yul\":9849:9859   */\n      dup2\n        /* \"#utility.yul\":9846:9868   */\n      lt\n        /* \"#utility.yul\":9825:9843   */\n      0xffffffffffffffff\n        /* \"#utility.yul\":9813:9823   */\n      dup3\n        /* \"#utility.yul\":9810:9844   */\n      gt\n        /* \"#utility.yul\":9807:9869   */\n      or\n        /* \"#utility.yul\":9804:9806   */\n      iszero\n      tag_264\n      jumpi\n        /* \"#utility.yul\":9872:9890   */\n      tag_265\n      tag_233\n      jump\t// in\n    tag_265:\n        /* \"#utility.yul\":9804:9806   */\n    tag_264:\n        /* \"#utility.yul\":9912:9922   */\n      dup1\n        /* \"#utility.yul\":9908:9910   */\n      0x40\n        /* \"#utility.yul\":9901:9923   */\n      mstore\n        /* \"#utility.yul\":9691:9929   */\n      pop\n      pop\n      pop\n      jump\t// out\n        /* \"#utility.yul\":9935:10168   */\n    tag_97:\n        /* \"#utility.yul\":9974:9977   */\n      0x00\n        /* \"#utility.yul\":9997:10021   */\n      tag_267\n        /* \"#utility.yul\":10015:10020   */\n      dup3\n        /* \"#utility.yul\":9997:10021   */\n      tag_201\n      jump\t// in\n    tag_267:\n        /* \"#utility.yul\":9988:10021   */\n      swap2\n      pop\n        /* \"#utility.yul\":10043:10109   */\n      0xffffffffffffffffffffffffffffffffffffffffffffffffffffffffffffffff\n        /* \"#utility.yul\":10036:10041   */\n      dup3\n        /* \"#utility.yul\":10033:10110   */\n      eq\n        /* \"#utility.yul\":10030:10032   */\n      iszero\n      tag_268\n      jumpi\n        /* \"#utility.yul\":10113:10131   */\n      tag_269\n      tag_270\n      jump\t// in\n    tag_269:\n        /* \"#utility.yul\":10030:10032   */\n    tag_268:\n        /* \"#utility.yul\":10160:10161   */\n      0x01\n        /* \"#utility.yul\":10153:10158   */\n      dup3\n        /* \"#utility.yul\":10149:10162   */\n      add\n        /* \"#utility.yul\":10142:10162   */\n      swap1\n      pop\n        /* \"#utility.yul\":9978:10168   */\n      swap2\n      swap1\n      pop\n      jump\t// out\n        /* \"#utility.yul\":10174:10354   */\n    tag_270:\n        /* \"#utility.yul\":10222:10299   */\n      0x4e487b7100000000000000000000000000000000000000000000000000000000\n        /* \"#utility.yul\":10219:10220   */\n      0x00\n        /* \"#utility.yul\":10212:10300   */\n      mstore\n        /* \"#utility.yul\":10319:10323   */\n      0x11\n        /* \"#utility.yul\":10316:10317   */\n      0x04\n        /* \"#utility.yul\":10309:10324   */\n      mstore\n        /* \"#utility.yul\":10343:10347   */\n      0x24\n        /* \"#utility.yul\":10340:10341   */\n      0x00\n        /* \"#utility.yul\":10333:10348   */\n      revert\n        /* \"#utility.yul\":10360:10540   */\n    tag_242:\n        /* \"#utility.yul\":10408:10485   */\n      0x4e487b7100000000000000000000000000000000000000000000000000000000\n        /* \"#utility.yul\":10405:10406   */\n      0x00\n        /* \"#utility.yul\":10398:10486   */\n      mstore\n        /* \"#utility.yul\":10505:10509   */\n      0x12\n        /* \"#utility.yul\":10502:10503   */\n      0x04\n        /* \"#utility.yul\":10495:10510   */\n      mstore\n        /* \"#utility.yul\":10529:10533   */\n      0x24\n        /* \"#utility.yul\":10526:10527   */\n      0x00\n        /* \"#utility.yul\":10519:10534   */\n      revert\n        /* \"#utility.yul\":10546:10726   */\n    tag_261:\n        /* \"#utility.yul\":10594:10671   */\n      0x4e487b7100000000000000000000000000000000000000000000000000000000\n        /* \"#utility.yul\":10591:10592   */\n      0x00\n        /* \"#utility.yul\":10584:10672   */\n      mstore\n        /* \"#utility.yul\":10691:10695   */\n      0x22\n        /* \"#utility.yul\":10688:10689   */\n      0x04\n        /* \"#utility.yul\":10681:10696   */\n      mstore\n        /* \"#utility.yul\":10715:10719   */\n      0x24\n        /* \"#utility.yul\":10712:10713   */\n      0x00\n        /* \"#utility.yul\":10705:10720   */\n      revert\n        /* \"#utility.yul\":10732:10912   */\n    tag_233:\n        /* \"#utility.yul\":10780:10857   */\n      0x4e487b7100000000000000000000000000000000000000000000000000000000\n        /* \"#utility.yul\":10777:10778   */\n      0x00\n        /* \"#utility.yul\":10770:10858   */\n      mstore\n        /* \"#utility.yul\":10877:10881   */\n      0x41\n        /* \"#utility.yul\":10874:10875   */\n      0x04\n        /* \"#utility.yul\":10867:10882   */\n      mstore\n        /* \"#utility.yul\":10901:10905   */\n      0x24\n        /* \"#utility.yul\":10898:10899   */\n      0x00\n        /* \"#utility.yul\":10891:10906   */\n      revert\n        /* \"#utility.yul\":10918:11035   */\n    tag_142:\n        /* \"#utility.yul\":11027:11028   */\n      0x00\n        /* \"#utility.yul\":11024:11025   */\n      dup1\n        /* \"#utility.yul\":11017:11029   */\n      revert\n        /* \"#utility.yul\":11041:11158   */\n    tag_127:\n        /* \"#utility.yul\":11150:11151   */\n      0x00\n        /* \"#utility.yul\":11147:11148   */\n      dup1\n        /* \"#utility.yul\":11140:11152   */\n      revert\n        /* \"#utility.yul\":11164:11281   */\n    tag_158:\n        /* \"#utility.yul\":11273:11274   */\n      0x00\n        /* \"#utility.yul\":11270:11271   */\n      dup1\n        /* \"#utility.yul\":11263:11275   */\n      revert\n        /* \"#utility.yul\":11287:11404   */\n    tag_151:\n        /* \"#utility.yul\":11396:11397   */\n      0x00\n        /* \"#utility.yul\":11393:11394   */\n      dup1\n        /* \"#utility.yul\":11386:11398   */\n      revert\n        /* \"#utility.yul\":11410:11512   */\n    tag_187:\n        /* \"#utility.yul\":11451:11457   */\n      0x00\n        /* \"#utility.yul\":11502:11504   */\n      0x1f\n        /* \"#utility.yul\":11498:11505   */\n      not\n        /* \"#utility.yul\":11493:11495   */\n      0x1f\n        /* \"#utility.yul\":11486:11491   */\n      dup4\n        /* \"#utility.yul\":11482:11496   */\n      add\n        /* \"#utility.yul\":11478:11506   */\n      and\n        /* \"#utility.yul\":11468:11506   */\n      swap1\n      pop\n        /* \"#utility.yul\":11458:11512   */\n      swap2\n      swap1\n      pop\n      jump\t// out\n        /* \"#utility.yul\":11518:11691   */\n    tag_192:\n        /* \"#utility.yul\":11658:11683   */\n      0x6d616e616765722070726976696c65676573206f6e6c79000000000000000000\n        /* \"#utility.yul\":11654:11655   */\n      0x00\n        /* \"#utility.yul\":11646:11652   */\n      dup3\n        /* \"#utility.yul\":11642:11656   */\n      add\n        /* \"#utility.yul\":11635:11684   */\n      mstore\n        /* \"#utility.yul\":11624:11691   */\n      pop\n      jump\t// out\n        /* \"#utility.yul\":11697:11876   */\n    tag_197:\n        /* \"#utility.yul\":11837:11868   */\n      0x6d696e696d756d20636f6e747269627574696f6e207265717569726564000000\n        /* \"#utility.yul\":11833:11834   */\n      0x00\n        /* \"#utility.yul\":11825:11831   */\n      dup3\n        /* \"#utility.yul\":11821:11835   */\n      add\n        /* \"#utility.yul\":11814:11869   */\n      mstore\n        /* \"#utility.yul\":11803:11876   */\n      pop\n      jump\t// out\n        /* \"#utility.yul\":11882:12004   */\n    tag_133:\n        /* \"#utility.yul\":11955:11979   */\n      tag_283\n        /* \"#utility.yul\":11973:11978   */\n      dup2\n        /* \"#utility.yul\":11955:11979   */\n      tag_173\n      jump\t// in\n    tag_283:\n        /* \"#utility.yul\":11948:11953   */\n      dup2\n        /* \"#utility.yul\":11945:11980   */\n      eq\n        /* \"#utility.yul\":11935:11937   */\n      tag_284\n      jumpi\n        /* \"#utility.yul\":11994:11995   */\n      0x00\n        /* \"#utility.yul\":11991:11992   */\n      dup1\n        /* \"#utility.yul\":11984:11996   */\n      revert\n        /* \"#utility.yul\":11935:11937   */\n    tag_284:\n        /* \"#utility.yul\":11925:12004   */\n      pop\n      jump\t// out\n        /* \"#utility.yul\":12010:12148   */\n    tag_137:\n        /* \"#utility.yul\":12091:12123   */\n      tag_286\n        /* \"#utility.yul\":12117:12122   */\n      dup2\n        /* \"#utility.yul\":12091:12123   */\n      tag_169\n      jump\t// in\n    tag_286:\n        /* \"#utility.yul\":12084:12089   */\n      dup2\n        /* \"#utility.yul\":12081:12124   */\n      eq\n        /* \"#utility.yul\":12071:12073   */\n      tag_287\n      jumpi\n        /* \"#utility.yul\":12138:12139   */\n      0x00\n        /* \"#utility.yul\":12135:12136   */\n      dup1\n        /* \"#utility.yul\":12128:12140   */\n      revert\n        /* \"#utility.yul\":12071:12073   */\n    tag_287:\n        /* \"#utility.yul\":12061:12148   */\n      pop\n      jump\t// out\n        /* \"#utility.yul\":12154:12276   */\n    tag_147:\n        /* \"#utility.yul\":12227:12251   */\n      tag_289\n        /* \"#utility.yul\":12245:12250   */\n      dup2\n        /* \"#utility.yul\":12227:12251   */\n      tag_201\n      jump\t// in\n    tag_289:\n        /* \"#utility.yul\":12220:12225   */\n      dup2\n        /* \"#utility.yul\":12217:12252   */\n      eq\n        /* \"#utility.yul\":12207:12209   */\n      tag_290\n      jumpi\n        /* \"#utility.yul\":12266:12267   */\n      0x00\n        /* \"#utility.yul\":12263:12264   */\n      dup1\n        /* \"#utility.yul\":12256:12268   */\n      revert\n        /* \"#utility.yul\":12207:12209   */\n    tag_290:\n        /* \"#utility.yul\":12197:12276   */\n      pop\n      jump\t// out\n\n    auxdata: 0xa26469706673582212209705235aa3a8b8ee014c98b97c05ca416b56136da4a3162ed5c5a3da4be17fc764736f6c63430008060033\n}\n","bytecode":{"linkReferences":{},"object":"608060405260006004553480156200001657600080fd5b50604051620012433803806200124383398181016040528101906200003c9190620000b9565b806000806101000a81548173ffffffffffffffffffffffffffffffffffffffff021916908373ffffffffffffffffffffffffffffffffffffffff16021790555081600181905550505062000177565b6000815190506200009c8162000143565b92915050565b600081519050620000b3816200015d565b92915050565b60008060408385031215620000d357620000d26200013e565b5b6000620000e385828601620000a2565b9250506020620000f6858286016200008b565b9150509250929050565b60006200010d8262000114565b9050919050565b600073ffffffffffffffffffffffffffffffffffffffff82169050919050565b6000819050919050565b600080fd5b6200014e8162000100565b81146200015a57600080fd5b50565b620001688162000134565b81146200017457600080fd5b50565b6110bc80620001876000396000f3fe6080604052600436106100a75760003560e01c806382fde0931161006457806382fde093146101d85780638a9cfd5514610203578063937e09b11461022c578063d7bb99ba14610257578063d7d1bbdb14610261578063fbfa4b7f1461028a576100a7565b806303441006146100ac5780630a144391146100d55780633410452a146101125780634051ddac1461013d578063481c6a751461016c57806381d12c5814610197575b600080fd5b3480156100b857600080fd5b506100d360048036038101906100ce9190610afd565b6102b5565b005b3480156100e157600080fd5b506100fc60048036038101906100f79190610a61565b610423565b6040516101099190610c5a565b60405180910390f35b34801561011e57600080fd5b50610127610443565b6040516101349190610cb5565b60405180910390f35b34801561014957600080fd5b5061015261044d565b604051610163959493929190610cd0565b60405180910390f35b34801561017857600080fd5b50610181610491565b60405161018e9190610be5565b60405180910390f35b3480156101a357600080fd5b506101be60048036038101906101b99190610afd565b6104b5565b6040516101cf959493929190610c00565b60405180910390f35b3480156101e457600080fd5b506101ed6105a0565b6040516101fa9190610cb5565b60405180910390f35b34801561020f57600080fd5b5061022a60048036038101906102259190610a8e565b6105a6565b005b34801561023857600080fd5b5061024161070f565b60405161024e9190610cb5565b60405180910390f35b61025f610715565b005b34801561026d57600080fd5b5061028860048036038101906102839190610afd565b6107cb565b005b34801561029657600080fd5b5061029f610909565b6040516102ac9190610cb5565b60405180910390f35b60008054906101000a900473ffffffffffffffffffffffffffffffffffffffff1673ffffffffffffffffffffffffffffffffffffffff163373ffffffffffffffffffffffffffffffffffffffff1614610343576040517f08c379a000000000000000000000000000000000000000000000000000000000815260040161033a90610c75565b60405180910390fd5b6000600660008381526020019081526020016000209050600280546103689190610d95565b81600301541161037757600080fd5b8060040160009054906101000a900460ff161561039357600080fd5b8060000160009054906101000a900473ffffffffffffffffffffffffffffffffffffffff1673ffffffffffffffffffffffffffffffffffffffff166108fc82600201549081150290604051600060405180830381858888f19350505050158015610401573d6000803e3d6000fd5b5060018160040160006101000a81548160ff0219169083151502179055505050565b60056020528060005260406000206000915054906101000a900460ff1681565b6000600354905090565b60008060008060006001544760035460025460008054906101000a900473ffffffffffffffffffffffffffffffffffffffff16945094509450945094509091929394565b60008054906101000a900473ffffffffffffffffffffffffffffffffffffffff1681565b60066020528060005260406000206000915090508060000160009054906101000a900473ffffffffffffffffffffffffffffffffffffffff16908060010180546104fe90610e62565b80601f016020809104026020016040519081016040528092919081815260200182805461052a90610e62565b80156105775780601f1061054c57610100808354040283529160200191610577565b820191906000526020600020905b81548152906001019060200180831161055a57829003601f168201915b5050505050908060020154908060030154908060040160009054906101000a900460ff16905085565b60025481565b60008054906101000a900473ffffffffffffffffffffffffffffffffffffffff1673ffffffffffffffffffffffffffffffffffffffff163373ffffffffffffffffffffffffffffffffffffffff1614610634576040517f08c379a000000000000000000000000000000000000000000000000000000000815260040161062b90610c75565b60405180910390fd5b600060066000600454815260200190815260200160002090508381600101908051906020019061066592919061090f565b50818160000160006101000a81548173ffffffffffffffffffffffffffffffffffffffff021916908373ffffffffffffffffffffffffffffffffffffffff16021790555082816002018190555060008160040160006101000a81548160ff02191690831515021790555060008160030181905550600460008154809291906106ec90610ec5565b91905055506003600081548092919061070490610ec5565b919050555050505050565b60015481565b6001543411610759576040517f08c379a000000000000000000000000000000000000000000000000000000000815260040161075090610c95565b60405180910390fd5b6001600560003373ffffffffffffffffffffffffffffffffffffffff1673ffffffffffffffffffffffffffffffffffffffff16815260200190815260200160002060006101000a81548160ff021916908315150217905550600260008154809291906107c490610ec5565b9190505550565b6000600660008381526020019081526020016000209050600560003373ffffffffffffffffffffffffffffffffffffffff1673ffffffffffffffffffffffffffffffffffffffff16815260200190815260200160002060009054906101000a900460ff1661083857600080fd5b8060050160003373ffffffffffffffffffffffffffffffffffffffff1673ffffffffffffffffffffffffffffffffffffffff16815260200190815260200160002060009054906101000a900460ff161561089157600080fd5b60018160050160003373ffffffffffffffffffffffffffffffffffffffff1673ffffffffffffffffffffffffffffffffffffffff16815260200190815260200160002060006101000a81548160ff02191690831515021790555080600301600081548092919061090090610ec5565b91905055505050565b60035481565b82805461091b90610e62565b90600052602060002090601f01602090048101928261093d5760008555610984565b82601f1061095657805160ff1916838001178555610984565b82800160010185558215610984579182015b82811115610983578251825591602001919060010190610968565b5b5090506109919190610995565b5090565b5b808211156109ae576000816000905550600101610996565b5090565b60006109c56109c084610d48565b610d23565b9050828152602081018484840111156109e1576109e0610fcf565b5b6109ec848285610e20565b509392505050565b600081359050610a0381611041565b92915050565b600081359050610a1881611058565b92915050565b600082601f830112610a3357610a32610fca565b5b8135610a438482602086016109b2565b91505092915050565b600081359050610a5b8161106f565b92915050565b600060208284031215610a7757610a76610fd9565b5b6000610a85848285016109f4565b91505092915050565b600080600060608486031215610aa757610aa6610fd9565b5b600084013567ffffffffffffffff811115610ac557610ac4610fd4565b5b610ad186828701610a1e565b9350506020610ae286828701610a4c565b9250506040610af386828701610a09565b9150509250925092565b600060208284031215610b1357610b12610fd9565b5b6000610b2184828501610a4c565b91505092915050565b610b3381610dd8565b82525050565b610b4281610dc6565b82525050565b610b5181610dea565b82525050565b6000610b6282610d79565b610b6c8185610d84565b9350610b7c818560208601610e2f565b610b8581610fde565b840191505092915050565b6000610b9d601783610d84565b9150610ba882610fef565b602082019050919050565b6000610bc0601d83610d84565b9150610bcb82611018565b602082019050919050565b610bdf81610e16565b82525050565b6000602082019050610bfa6000830184610b39565b92915050565b600060a082019050610c156000830188610b2a565b8181036020830152610c278187610b57565b9050610c366040830186610bd6565b610c436060830185610bd6565b610c506080830184610b48565b9695505050505050565b6000602082019050610c6f6000830184610b48565b92915050565b60006020820190508181036000830152610c8e81610b90565b9050919050565b60006020820190508181036000830152610cae81610bb3565b9050919050565b6000602082019050610cca6000830184610bd6565b92915050565b600060a082019050610ce56000830188610bd6565b610cf26020830187610bd6565b610cff6040830186610bd6565b610d0c6060830185610bd6565b610d196080830184610b39565b9695505050505050565b6000610d2d610d3e565b9050610d398282610e94565b919050565b6000604051905090565b600067ffffffffffffffff821115610d6357610d62610f9b565b5b610d6c82610fde565b9050602081019050919050565b600081519050919050565b600082825260208201905092915050565b6000610da082610e16565b9150610dab83610e16565b925082610dbb57610dba610f3d565b5b828204905092915050565b6000610dd182610df6565b9050919050565b6000610de382610df6565b9050919050565b60008115159050919050565b600073ffffffffffffffffffffffffffffffffffffffff82169050919050565b6000819050919050565b82818337600083830152505050565b60005b83811015610e4d578082015181840152602081019050610e32565b83811115610e5c576000848401525b50505050565b60006002820490506001821680610e7a57607f821691505b60208210811415610e8e57610e8d610f6c565b5b50919050565b610e9d82610fde565b810181811067ffffffffffffffff82111715610ebc57610ebb610f9b565b5b80604052505050565b6000610ed082610e16565b91507fffffffffffffffffffffffffffffffffffffffffffffffffffffffffffffffff821415610f0357610f02610f0e565b5b600182019050919050565b7f4e487b7100000000000000000000000000000000000000000000000000000000600052601160045260246000fd5b7f4e487b7100000000000000000000000000000000000000000000000000000000600052601260045260246000fd5b7f4e487b7100000000000000000000000000000000000000000000000000000000600052602260045260246000fd5b7f4e487b7100000000000000000000000000000000000000000000000000000000600052604160045260246000fd5b600080fd5b600080fd5b600080fd5b600080fd5b6000601f19601f8301169050919050565b7f6d616e616765722070726976696c65676573206f6e6c79000000000000000000600082015250565b7f6d696e696d756d20636f6e747269627574696f6e207265717569726564000000600082015250565b61104a81610dc6565b811461105557600080fd5b50565b61106181610dd8565b811461106c57600080fd5b50565b61107881610e16565b811461108357600080fd5b5056fea26469706673582212209705235aa3a8b8ee014c98b97c05ca416b56136da4a3162ed5c5a3da4be17fc764736f6c63430008060033","opcodes":"PUSH1 0x80 PUSH1 0x40 MSTORE PUSH1 0x0 PUSH1 0x4 SSTORE CALLVALUE DUP1 ISZERO PUSH3 0x16 JUMPI PUSH1 0x0 DUP1 REVERT JUMPDEST POP PUSH1 0x40 MLOAD PUSH3 0x1243 CODESIZE SUB DUP1 PUSH3 0x1243 DUP4 CODECOPY DUP2 DUP2 ADD PUSH1 0x40 MSTORE DUP2 ADD SWAP1 PUSH3 0x3C SWAP2 SWAP1 PUSH3 0xB9 JUMP JUMPDEST DUP1 PUSH1 0x0 DUP1 PUSH2 0x100 EXP DUP2 SLOAD DUP2 PUSH20 0xFFFFFFFFFFFFFFFFFFFFFFFFFFFFFFFFFFFFFFFF MUL NOT AND SWAP1 DUP4 PUSH20 0xFFFFFFFFFFFFFFFFFFFFFFFFFFFFFFFFFFFFFFFF AND MUL OR SWAP1 SSTORE POP DUP2 PUSH1 0x1 DUP2 SWAP1 SSTORE POP POP POP PUSH3 0x177 JUMP JUMPDEST PUSH1 0x0 DUP2 MLOAD SWAP1 POP PUSH3 0x9C DUP2 PUSH3 0x143 JUMP JUMPDEST SWAP3 SWAP2 POP POP JUMP JUMPDEST PUSH1 0x0 DUP2 MLOAD SWAP1 POP PUSH3 0xB3 DUP2 PUSH3 0x15D JUMP JUMPDEST SWAP3 SWAP2 POP POP JUMP JUMPDEST PUSH1 0x0 DUP1 PUSH1 0x40 DUP4 DUP6 SUB SLT ISZERO PUSH3 0xD3 JUMPI PUSH3 0xD2 PUSH3 0x13E JUMP JUMPDEST JUMPDEST PUSH1 0x0 PUSH3 0xE3 DUP6 DUP3 DUP7 ADD PUSH3 0xA2 JUMP JUMPDEST SWAP3 POP POP PUSH1 0x20 PUSH3 0xF6 DUP6 DUP3 DUP7 ADD PUSH3 0x8B JUMP JUMPDEST SWAP2 POP POP SWAP3 POP SWAP3 SWAP1 POP JUMP JUMPDEST PUSH1 0x0 PUSH3 0x10D DUP3 PUSH3 0x114 JUMP JUMPDEST SWAP1 POP SWAP2 SWAP1 POP JUMP JUMPDEST PUSH1 0x0 PUSH20 0xFFFFFFFFFFFFFFFFFFFFFFFFFFFFFFFFFFFFFFFF DUP3 AND SWAP1 POP SWAP2 SWAP1 POP JUMP JUMPDEST PUSH1 0x0 DUP2 SWAP1 POP SWAP2 SWAP1 POP JUMP JUMPDEST PUSH1 0x0 DUP1 REVERT JUMPDEST PUSH3 0x14E DUP2 PUSH3 0x100 JUMP JUMPDEST DUP2 EQ PUSH3 0x15A JUMPI PUSH1 0x0 DUP1 REVERT JUMPDEST POP JUMP JUMPDEST PUSH3 0x168 DUP2 PUSH3 0x134 JUMP JUMPDEST DUP2 EQ PUSH3 0x174 JUMPI PUSH1 0x0 DUP1 REVERT JUMPDEST POP JUMP JUMPDEST PUSH2 0x10BC DUP1 PUSH3 0x187 PUSH1 0x0 CODECOPY PUSH1 0x0 RETURN INVALID PUSH1 0x80 PUSH1 0x40 MSTORE PUSH1 0x4 CALLDATASIZE LT PUSH2 0xA7 JUMPI PUSH1 0x0 CALLDATALOAD PUSH1 0xE0 SHR DUP1 PUSH4 0x82FDE093 GT PUSH2 0x64 JUMPI DUP1 PUSH4 0x82FDE093 EQ PUSH2 0x1D8 JUMPI DUP1 PUSH4 0x8A9CFD55 EQ PUSH2 0x203 JUMPI DUP1 PUSH4 0x937E09B1 EQ PUSH2 0x22C JUMPI DUP1 PUSH4 0xD7BB99BA EQ PUSH2 0x257 JUMPI DUP1 PUSH4 0xD7D1BBDB EQ PUSH2 0x261 JUMPI DUP1 PUSH4 0xFBFA4B7F EQ PUSH2 0x28A JUMPI PUSH2 0xA7 JUMP JUMPDEST DUP1 PUSH4 0x3441006 EQ PUSH2 0xAC JUMPI DUP1 PUSH4 0xA144391 EQ PUSH2 0xD5 JUMPI DUP1 PUSH4 0x3410452A EQ PUSH2 0x112 JUMPI DUP1 PUSH4 0x4051DDAC EQ PUSH2 0x13D JUMPI DUP1 PUSH4 0x481C6A75 EQ PUSH2 0x16C JUMPI DUP1 PUSH4 0x81D12C58 EQ PUSH2 0x197 JUMPI JUMPDEST PUSH1 0x0 DUP1 REVERT JUMPDEST CALLVALUE DUP1 ISZERO PUSH2 0xB8 JUMPI PUSH1 0x0 DUP1 REVERT JUMPDEST POP PUSH2 0xD3 PUSH1 0x4 DUP1 CALLDATASIZE SUB DUP2 ADD SWAP1 PUSH2 0xCE SWAP2 SWAP1 PUSH2 0xAFD JUMP JUMPDEST PUSH2 0x2B5 JUMP JUMPDEST STOP JUMPDEST CALLVALUE DUP1 ISZERO PUSH2 0xE1 JUMPI PUSH1 0x0 DUP1 REVERT JUMPDEST POP PUSH2 0xFC PUSH1 0x4 DUP1 CALLDATASIZE SUB DUP2 ADD SWAP1 PUSH2 0xF7 SWAP2 SWAP1 PUSH2 0xA61 JUMP JUMPDEST PUSH2 0x423 JUMP JUMPDEST PUSH1 0x40 MLOAD PUSH2 0x109 SWAP2 SWAP1 PUSH2 0xC5A JUMP JUMPDEST PUSH1 0x40 MLOAD DUP1 SWAP2 SUB SWAP1 RETURN JUMPDEST CALLVALUE DUP1 ISZERO PUSH2 0x11E JUMPI PUSH1 0x0 DUP1 REVERT JUMPDEST POP PUSH2 0x127 PUSH2 0x443 JUMP JUMPDEST PUSH1 0x40 MLOAD PUSH2 0x134 SWAP2 SWAP1 PUSH2 0xCB5 JUMP JUMPDEST PUSH1 0x40 MLOAD DUP1 SWAP2 SUB SWAP1 RETURN JUMPDEST CALLVALUE DUP1 ISZERO PUSH2 0x149 JUMPI PUSH1 0x0 DUP1 REVERT JUMPDEST POP PUSH2 0x152 PUSH2 0x44D JUMP JUMPDEST PUSH1 0x40 MLOAD PUSH2 0x163 SWAP6 SWAP5 SWAP4 SWAP3 SWAP2 SWAP1 PUSH2 0xCD0 JUMP JUMPDEST PUSH1 0x40 MLOAD DUP1 SWAP2 SUB SWAP1 RETURN JUMPDEST CALLVALUE DUP1 ISZERO PUSH2 0x178 JUMPI PUSH1 0x0 DUP1 REVERT JUMPDEST POP PUSH2 0x181 PUSH2 0x491 JUMP JUMPDEST PUSH1 0x40 MLOAD PUSH2 0x18E SWAP2 SWAP1 PUSH2 0xBE5 JUMP JUMPDEST PUSH1 0x40 MLOAD DUP1 SWAP2 SUB SWAP1 RETURN JUMPDEST CALLVALUE DUP1 ISZERO PUSH2 0x1A3 JUMPI PUSH1 0x0 DUP1 REVERT JUMPDEST POP PUSH2 0x1BE PUSH1 0x4 DUP1 CALLDATASIZE SUB DUP2 ADD SWAP1 PUSH2 0x1B9 SWAP2 SWAP1 PUSH2 0xAFD JUMP JUMPDEST PUSH2 0x4B5 JUMP JUMPDEST PUSH1 0x40 MLOAD PUSH2 0x1CF SWAP6 SWAP5 SWAP4 SWAP3 SWAP2 SWAP1 PUSH2 0xC00 JUMP JUMPDEST PUSH1 0x40 MLOAD DUP1 SWAP2 SUB SWAP1 RETURN JUMPDEST CALLVALUE DUP1 ISZERO PUSH2 0x1E4 JUMPI PUSH1 0x0 DUP1 REVERT JUMPDEST POP PUSH2 0x1ED PUSH2 0x5A0 JUMP JUMPDEST PUSH1 0x40 MLOAD PUSH2 0x1FA SWAP2 SWAP1 PUSH2 0xCB5 JUMP JUMPDEST PUSH1 0x40 MLOAD DUP1 SWAP2 SUB SWAP1 RETURN JUMPDEST CALLVALUE DUP1 ISZERO PUSH2 0x20F JUMPI PUSH1 0x0 DUP1 REVERT JUMPDEST POP PUSH2 0x22A PUSH1 0x4 DUP1 CALLDATASIZE SUB DUP2 ADD SWAP1 PUSH2 0x225 SWAP2 SWAP1 PUSH2 0xA8E JUMP JUMPDEST PUSH2 0x5A6 JUMP JUMPDEST STOP JUMPDEST CALLVALUE DUP1 ISZERO PUSH2 0x238 JUMPI PUSH1 0x0 DUP1 REVERT JUMPDEST POP PUSH2 0x241 PUSH2 0x70F JUMP JUMPDEST PUSH1 0x40 MLOAD PUSH2 0x24E SWAP2 SWAP1 PUSH2 0xCB5 JUMP JUMPDEST PUSH1 0x40 MLOAD DUP1 SWAP2 SUB SWAP1 RETURN JUMPDEST PUSH2 0x25F PUSH2 0x715 JUMP JUMPDEST STOP JUMPDEST CALLVALUE DUP1 ISZERO PUSH2 0x26D JUMPI PUSH1 0x0 DUP1 REVERT JUMPDEST POP PUSH2 0x288 PUSH1 0x4 DUP1 CALLDATASIZE SUB DUP2 ADD SWAP1 PUSH2 0x283 SWAP2 SWAP1 PUSH2 0xAFD JUMP JUMPDEST PUSH2 0x7CB JUMP JUMPDEST STOP JUMPDEST CALLVALUE DUP1 ISZERO PUSH2 0x296 JUMPI PUSH1 0x0 DUP1 REVERT JUMPDEST POP PUSH2 0x29F PUSH2 0x909 JUMP JUMPDEST PUSH1 0x40 MLOAD PUSH2 0x2AC SWAP2 SWAP1 PUSH2 0xCB5 JUMP JUMPDEST PUSH1 0x40 MLOAD DUP1 SWAP2 SUB SWAP1 RETURN JUMPDEST PUSH1 0x0 DUP1 SLOAD SWAP1 PUSH2 0x100 EXP SWAP1 DIV PUSH20 0xFFFFFFFFFFFFFFFFFFFFFFFFFFFFFFFFFFFFFFFF AND PUSH20 0xFFFFFFFFFFFFFFFFFFFFFFFFFFFFFFFFFFFFFFFF AND CALLER PUSH20 0xFFFFFFFFFFFFFFFFFFFFFFFFFFFFFFFFFFFFFFFF AND EQ PUSH2 0x343 JUMPI PUSH1 0x40 MLOAD PUSH32 0x8C379A000000000000000000000000000000000000000000000000000000000 DUP2 MSTORE PUSH1 0x4 ADD PUSH2 0x33A SWAP1 PUSH2 0xC75 JUMP JUMPDEST PUSH1 0x40 MLOAD DUP1 SWAP2 SUB SWAP1 REVERT JUMPDEST PUSH1 0x0 PUSH1 0x6 PUSH1 0x0 DUP4 DUP2 MSTORE PUSH1 0x20 ADD SWAP1 DUP2 MSTORE PUSH1 0x20 ADD PUSH1 0x0 KECCAK256 SWAP1 POP PUSH1 0x2 DUP1 SLOAD PUSH2 0x368 SWAP2 SWAP1 PUSH2 0xD95 JUMP JUMPDEST DUP2 PUSH1 0x3 ADD SLOAD GT PUSH2 0x377 JUMPI PUSH1 0x0 DUP1 REVERT JUMPDEST DUP1 PUSH1 0x4 ADD PUSH1 0x0 SWAP1 SLOAD SWAP1 PUSH2 0x100 EXP SWAP1 DIV PUSH1 0xFF AND ISZERO PUSH2 0x393 JUMPI PUSH1 0x0 DUP1 REVERT JUMPDEST DUP1 PUSH1 0x0 ADD PUSH1 0x0 SWAP1 SLOAD SWAP1 PUSH2 0x100 EXP SWAP1 DIV PUSH20 0xFFFFFFFFFFFFFFFFFFFFFFFFFFFFFFFFFFFFFFFF AND PUSH20 0xFFFFFFFFFFFFFFFFFFFFFFFFFFFFFFFFFFFFFFFF AND PUSH2 0x8FC DUP3 PUSH1 0x2 ADD SLOAD SWAP1 DUP2 ISZERO MUL SWAP1 PUSH1 0x40 MLOAD PUSH1 0x0 PUSH1 0x40 MLOAD DUP1 DUP4 SUB DUP2 DUP6 DUP9 DUP9 CALL SWAP4 POP POP POP POP ISZERO DUP1 ISZERO PUSH2 0x401 JUMPI RETURNDATASIZE PUSH1 0x0 DUP1 RETURNDATACOPY RETURNDATASIZE PUSH1 0x0 REVERT JUMPDEST POP PUSH1 0x1 DUP2 PUSH1 0x4 ADD PUSH1 0x0 PUSH2 0x100 EXP DUP2 SLOAD DUP2 PUSH1 0xFF MUL NOT AND SWAP1 DUP4 ISZERO ISZERO MUL OR SWAP1 SSTORE POP POP POP JUMP JUMPDEST PUSH1 0x5 PUSH1 0x20 MSTORE DUP1 PUSH1 0x0 MSTORE PUSH1 0x40 PUSH1 0x0 KECCAK256 PUSH1 0x0 SWAP2 POP SLOAD SWAP1 PUSH2 0x100 EXP SWAP1 DIV PUSH1 0xFF AND DUP2 JUMP JUMPDEST PUSH1 0x0 PUSH1 0x3 SLOAD SWAP1 POP SWAP1 JUMP JUMPDEST PUSH1 0x0 DUP1 PUSH1 0x0 DUP1 PUSH1 0x0 PUSH1 0x1 SLOAD SELFBALANCE PUSH1 0x3 SLOAD PUSH1 0x2 SLOAD PUSH1 0x0 DUP1 SLOAD SWAP1 PUSH2 0x100 EXP SWAP1 DIV PUSH20 0xFFFFFFFFFFFFFFFFFFFFFFFFFFFFFFFFFFFFFFFF AND SWAP5 POP SWAP5 POP SWAP5 POP SWAP5 POP SWAP5 POP SWAP1 SWAP2 SWAP3 SWAP4 SWAP5 JUMP JUMPDEST PUSH1 0x0 DUP1 SLOAD SWAP1 PUSH2 0x100 EXP SWAP1 DIV PUSH20 0xFFFFFFFFFFFFFFFFFFFFFFFFFFFFFFFFFFFFFFFF AND DUP2 JUMP JUMPDEST PUSH1 0x6 PUSH1 0x20 MSTORE DUP1 PUSH1 0x0 MSTORE PUSH1 0x40 PUSH1 0x0 KECCAK256 PUSH1 0x0 SWAP2 POP SWAP1 POP DUP1 PUSH1 0x0 ADD PUSH1 0x0 SWAP1 SLOAD SWAP1 PUSH2 0x100 EXP SWAP1 DIV PUSH20 0xFFFFFFFFFFFFFFFFFFFFFFFFFFFFFFFFFFFFFFFF AND SWAP1 DUP1 PUSH1 0x1 ADD DUP1 SLOAD PUSH2 0x4FE SWAP1 PUSH2 0xE62 JUMP JUMPDEST DUP1 PUSH1 0x1F ADD PUSH1 0x20 DUP1 SWAP2 DIV MUL PUSH1 0x20 ADD PUSH1 0x40 MLOAD SWAP1 DUP2 ADD PUSH1 0x40 MSTORE DUP1 SWAP3 SWAP2 SWAP1 DUP2 DUP2 MSTORE PUSH1 0x20 ADD DUP3 DUP1 SLOAD PUSH2 0x52A SWAP1 PUSH2 0xE62 JUMP JUMPDEST DUP1 ISZERO PUSH2 0x577 JUMPI DUP1 PUSH1 0x1F LT PUSH2 0x54C JUMPI PUSH2 0x100 DUP1 DUP4 SLOAD DIV MUL DUP4 MSTORE SWAP2 PUSH1 0x20 ADD SWAP2 PUSH2 0x577 JUMP JUMPDEST DUP3 ADD SWAP2 SWAP1 PUSH1 0x0 MSTORE PUSH1 0x20 PUSH1 0x0 KECCAK256 SWAP1 JUMPDEST DUP2 SLOAD DUP2 MSTORE SWAP1 PUSH1 0x1 ADD SWAP1 PUSH1 0x20 ADD DUP1 DUP4 GT PUSH2 0x55A JUMPI DUP3 SWAP1 SUB PUSH1 0x1F AND DUP3 ADD SWAP2 JUMPDEST POP POP POP POP POP SWAP1 DUP1 PUSH1 0x2 ADD SLOAD SWAP1 DUP1 PUSH1 0x3 ADD SLOAD SWAP1 DUP1 PUSH1 0x4 ADD PUSH1 0x0 SWAP1 SLOAD SWAP1 PUSH2 0x100 EXP SWAP1 DIV PUSH1 0xFF AND SWAP1 POP DUP6 JUMP JUMPDEST PUSH1 0x2 SLOAD DUP2 JUMP JUMPDEST PUSH1 0x0 DUP1 SLOAD SWAP1 PUSH2 0x100 EXP SWAP1 DIV PUSH20 0xFFFFFFFFFFFFFFFFFFFFFFFFFFFFFFFFFFFFFFFF AND PUSH20 0xFFFFFFFFFFFFFFFFFFFFFFFFFFFFFFFFFFFFFFFF AND CALLER PUSH20 0xFFFFFFFFFFFFFFFFFFFFFFFFFFFFFFFFFFFFFFFF AND EQ PUSH2 0x634 JUMPI PUSH1 0x40 MLOAD PUSH32 0x8C379A000000000000000000000000000000000000000000000000000000000 DUP2 MSTORE PUSH1 0x4 ADD PUSH2 0x62B SWAP1 PUSH2 0xC75 JUMP JUMPDEST PUSH1 0x40 MLOAD DUP1 SWAP2 SUB SWAP1 REVERT JUMPDEST PUSH1 0x0 PUSH1 0x6 PUSH1 0x0 PUSH1 0x4 SLOAD DUP2 MSTORE PUSH1 0x20 ADD SWAP1 DUP2 MSTORE PUSH1 0x20 ADD PUSH1 0x0 KECCAK256 SWAP1 POP DUP4 DUP2 PUSH1 0x1 ADD SWAP1 DUP1 MLOAD SWAP1 PUSH1 0x20 ADD SWAP1 PUSH2 0x665 SWAP3 SWAP2 SWAP1 PUSH2 0x90F JUMP JUMPDEST POP DUP2 DUP2 PUSH1 0x0 ADD PUSH1 0x0 PUSH2 0x100 EXP DUP2 SLOAD DUP2 PUSH20 0xFFFFFFFFFFFFFFFFFFFFFFFFFFFFFFFFFFFFFFFF MUL NOT AND SWAP1 DUP4 PUSH20 0xFFFFFFFFFFFFFFFFFFFFFFFFFFFFFFFFFFFFFFFF AND MUL OR SWAP1 SSTORE POP DUP3 DUP2 PUSH1 0x2 ADD DUP2 SWAP1 SSTORE POP PUSH1 0x0 DUP2 PUSH1 0x4 ADD PUSH1 0x0 PUSH2 0x100 EXP DUP2 SLOAD DUP2 PUSH1 0xFF MUL NOT AND SWAP1 DUP4 ISZERO ISZERO MUL OR SWAP1 SSTORE POP PUSH1 0x0 DUP2 PUSH1 0x3 ADD DUP2 SWAP1 SSTORE POP PUSH1 0x4 PUSH1 0x0 DUP2 SLOAD DUP1 SWAP3 SWAP2 SWAP1 PUSH2 0x6EC SWAP1 PUSH2 0xEC5 JUMP JUMPDEST SWAP2 SWAP1 POP SSTORE POP PUSH1 0x3 PUSH1 0x0 DUP2 SLOAD DUP1 SWAP3 SWAP2 SWAP1 PUSH2 0x704 SWAP1 PUSH2 0xEC5 JUMP JUMPDEST SWAP2 SWAP1 POP SSTORE POP POP POP POP POP JUMP JUMPDEST PUSH1 0x1 SLOAD DUP2 JUMP JUMPDEST PUSH1 0x1 SLOAD CALLVALUE GT PUSH2 0x759 JUMPI PUSH1 0x40 MLOAD PUSH32 0x8C379A000000000000000000000000000000000000000000000000000000000 DUP2 MSTORE PUSH1 0x4 ADD PUSH2 0x750 SWAP1 PUSH2 0xC95 JUMP JUMPDEST PUSH1 0x40 MLOAD DUP1 SWAP2 SUB SWAP1 REVERT JUMPDEST PUSH1 0x1 PUSH1 0x5 PUSH1 0x0 CALLER PUSH20 0xFFFFFFFFFFFFFFFFFFFFFFFFFFFFFFFFFFFFFFFF AND PUSH20 0xFFFFFFFFFFFFFFFFFFFFFFFFFFFFFFFFFFFFFFFF AND DUP2 MSTORE PUSH1 0x20 ADD SWAP1 DUP2 MSTORE PUSH1 0x20 ADD PUSH1 0x0 KECCAK256 PUSH1 0x0 PUSH2 0x100 EXP DUP2 SLOAD DUP2 PUSH1 0xFF MUL NOT AND SWAP1 DUP4 ISZERO ISZERO MUL OR SWAP1 SSTORE POP PUSH1 0x2 PUSH1 0x0 DUP2 SLOAD DUP1 SWAP3 SWAP2 SWAP1 PUSH2 0x7C4 SWAP1 PUSH2 0xEC5 JUMP JUMPDEST SWAP2 SWAP1 POP SSTORE POP JUMP JUMPDEST PUSH1 0x0 PUSH1 0x6 PUSH1 0x0 DUP4 DUP2 MSTORE PUSH1 0x20 ADD SWAP1 DUP2 MSTORE PUSH1 0x20 ADD PUSH1 0x0 KECCAK256 SWAP1 POP PUSH1 0x5 PUSH1 0x0 CALLER PUSH20 0xFFFFFFFFFFFFFFFFFFFFFFFFFFFFFFFFFFFFFFFF AND PUSH20 0xFFFFFFFFFFFFFFFFFFFFFFFFFFFFFFFFFFFFFFFF AND DUP2 MSTORE PUSH1 0x20 ADD SWAP1 DUP2 MSTORE PUSH1 0x20 ADD PUSH1 0x0 KECCAK256 PUSH1 0x0 SWAP1 SLOAD SWAP1 PUSH2 0x100 EXP SWAP1 DIV PUSH1 0xFF AND PUSH2 0x838 JUMPI PUSH1 0x0 DUP1 REVERT JUMPDEST DUP1 PUSH1 0x5 ADD PUSH1 0x0 CALLER PUSH20 0xFFFFFFFFFFFFFFFFFFFFFFFFFFFFFFFFFFFFFFFF AND PUSH20 0xFFFFFFFFFFFFFFFFFFFFFFFFFFFFFFFFFFFFFFFF AND DUP2 MSTORE PUSH1 0x20 ADD SWAP1 DUP2 MSTORE PUSH1 0x20 ADD PUSH1 0x0 KECCAK256 PUSH1 0x0 SWAP1 SLOAD SWAP1 PUSH2 0x100 EXP SWAP1 DIV PUSH1 0xFF AND ISZERO PUSH2 0x891 JUMPI PUSH1 0x0 DUP1 REVERT JUMPDEST PUSH1 0x1 DUP2 PUSH1 0x5 ADD PUSH1 0x0 CALLER PUSH20 0xFFFFFFFFFFFFFFFFFFFFFFFFFFFFFFFFFFFFFFFF AND PUSH20 0xFFFFFFFFFFFFFFFFFFFFFFFFFFFFFFFFFFFFFFFF AND DUP2 MSTORE PUSH1 0x20 ADD SWAP1 DUP2 MSTORE PUSH1 0x20 ADD PUSH1 0x0 KECCAK256 PUSH1 0x0 PUSH2 0x100 EXP DUP2 SLOAD DUP2 PUSH1 0xFF MUL NOT AND SWAP1 DUP4 ISZERO ISZERO MUL OR SWAP1 SSTORE POP DUP1 PUSH1 0x3 ADD PUSH1 0x0 DUP2 SLOAD DUP1 SWAP3 SWAP2 SWAP1 PUSH2 0x900 SWAP1 PUSH2 0xEC5 JUMP JUMPDEST SWAP2 SWAP1 POP SSTORE POP POP POP JUMP JUMPDEST PUSH1 0x3 SLOAD DUP2 JUMP JUMPDEST DUP3 DUP1 SLOAD PUSH2 0x91B SWAP1 PUSH2 0xE62 JUMP JUMPDEST SWAP1 PUSH1 0x0 MSTORE PUSH1 0x20 PUSH1 0x0 KECCAK256 SWAP1 PUSH1 0x1F ADD PUSH1 0x20 SWAP1 DIV DUP2 ADD SWAP3 DUP3 PUSH2 0x93D JUMPI PUSH1 0x0 DUP6 SSTORE PUSH2 0x984 JUMP JUMPDEST DUP3 PUSH1 0x1F LT PUSH2 0x956 JUMPI DUP1 MLOAD PUSH1 0xFF NOT AND DUP4 DUP1 ADD OR DUP6 SSTORE PUSH2 0x984 JUMP JUMPDEST DUP3 DUP1 ADD PUSH1 0x1 ADD DUP6 SSTORE DUP3 ISZERO PUSH2 0x984 JUMPI SWAP2 DUP3 ADD JUMPDEST DUP3 DUP2 GT ISZERO PUSH2 0x983 JUMPI DUP3 MLOAD DUP3 SSTORE SWAP2 PUSH1 0x20 ADD SWAP2 SWAP1 PUSH1 0x1 ADD SWAP1 PUSH2 0x968 JUMP JUMPDEST JUMPDEST POP SWAP1 POP PUSH2 0x991 SWAP2 SWAP1 PUSH2 0x995 JUMP JUMPDEST POP SWAP1 JUMP JUMPDEST JUMPDEST DUP1 DUP3 GT ISZERO PUSH2 0x9AE JUMPI PUSH1 0x0 DUP2 PUSH1 0x0 SWAP1 SSTORE POP PUSH1 0x1 ADD PUSH2 0x996 JUMP JUMPDEST POP SWAP1 JUMP JUMPDEST PUSH1 0x0 PUSH2 0x9C5 PUSH2 0x9C0 DUP5 PUSH2 0xD48 JUMP JUMPDEST PUSH2 0xD23 JUMP JUMPDEST SWAP1 POP DUP3 DUP2 MSTORE PUSH1 0x20 DUP2 ADD DUP5 DUP5 DUP5 ADD GT ISZERO PUSH2 0x9E1 JUMPI PUSH2 0x9E0 PUSH2 0xFCF JUMP JUMPDEST JUMPDEST PUSH2 0x9EC DUP5 DUP3 DUP6 PUSH2 0xE20 JUMP JUMPDEST POP SWAP4 SWAP3 POP POP POP JUMP JUMPDEST PUSH1 0x0 DUP2 CALLDATALOAD SWAP1 POP PUSH2 0xA03 DUP2 PUSH2 0x1041 JUMP JUMPDEST SWAP3 SWAP2 POP POP JUMP JUMPDEST PUSH1 0x0 DUP2 CALLDATALOAD SWAP1 POP PUSH2 0xA18 DUP2 PUSH2 0x1058 JUMP JUMPDEST SWAP3 SWAP2 POP POP JUMP JUMPDEST PUSH1 0x0 DUP3 PUSH1 0x1F DUP4 ADD SLT PUSH2 0xA33 JUMPI PUSH2 0xA32 PUSH2 0xFCA JUMP JUMPDEST JUMPDEST DUP2 CALLDATALOAD PUSH2 0xA43 DUP5 DUP3 PUSH1 0x20 DUP7 ADD PUSH2 0x9B2 JUMP JUMPDEST SWAP2 POP POP SWAP3 SWAP2 POP POP JUMP JUMPDEST PUSH1 0x0 DUP2 CALLDATALOAD SWAP1 POP PUSH2 0xA5B DUP2 PUSH2 0x106F JUMP JUMPDEST SWAP3 SWAP2 POP POP JUMP JUMPDEST PUSH1 0x0 PUSH1 0x20 DUP3 DUP5 SUB SLT ISZERO PUSH2 0xA77 JUMPI PUSH2 0xA76 PUSH2 0xFD9 JUMP JUMPDEST JUMPDEST PUSH1 0x0 PUSH2 0xA85 DUP5 DUP3 DUP6 ADD PUSH2 0x9F4 JUMP JUMPDEST SWAP2 POP POP SWAP3 SWAP2 POP POP JUMP JUMPDEST PUSH1 0x0 DUP1 PUSH1 0x0 PUSH1 0x60 DUP5 DUP7 SUB SLT ISZERO PUSH2 0xAA7 JUMPI PUSH2 0xAA6 PUSH2 0xFD9 JUMP JUMPDEST JUMPDEST PUSH1 0x0 DUP5 ADD CALLDATALOAD PUSH8 0xFFFFFFFFFFFFFFFF DUP2 GT ISZERO PUSH2 0xAC5 JUMPI PUSH2 0xAC4 PUSH2 0xFD4 JUMP JUMPDEST JUMPDEST PUSH2 0xAD1 DUP7 DUP3 DUP8 ADD PUSH2 0xA1E JUMP JUMPDEST SWAP4 POP POP PUSH1 0x20 PUSH2 0xAE2 DUP7 DUP3 DUP8 ADD PUSH2 0xA4C JUMP JUMPDEST SWAP3 POP POP PUSH1 0x40 PUSH2 0xAF3 DUP7 DUP3 DUP8 ADD PUSH2 0xA09 JUMP JUMPDEST SWAP2 POP POP SWAP3 POP SWAP3 POP SWAP3 JUMP JUMPDEST PUSH1 0x0 PUSH1 0x20 DUP3 DUP5 SUB SLT ISZERO PUSH2 0xB13 JUMPI PUSH2 0xB12 PUSH2 0xFD9 JUMP JUMPDEST JUMPDEST PUSH1 0x0 PUSH2 0xB21 DUP5 DUP3 DUP6 ADD PUSH2 0xA4C JUMP JUMPDEST SWAP2 POP POP SWAP3 SWAP2 POP POP JUMP JUMPDEST PUSH2 0xB33 DUP2 PUSH2 0xDD8 JUMP JUMPDEST DUP3 MSTORE POP POP JUMP JUMPDEST PUSH2 0xB42 DUP2 PUSH2 0xDC6 JUMP JUMPDEST DUP3 MSTORE POP POP JUMP JUMPDEST PUSH2 0xB51 DUP2 PUSH2 0xDEA JUMP JUMPDEST DUP3 MSTORE POP POP JUMP JUMPDEST PUSH1 0x0 PUSH2 0xB62 DUP3 PUSH2 0xD79 JUMP JUMPDEST PUSH2 0xB6C DUP2 DUP6 PUSH2 0xD84 JUMP JUMPDEST SWAP4 POP PUSH2 0xB7C DUP2 DUP6 PUSH1 0x20 DUP7 ADD PUSH2 0xE2F JUMP JUMPDEST PUSH2 0xB85 DUP2 PUSH2 0xFDE JUMP JUMPDEST DUP5 ADD SWAP2 POP POP SWAP3 SWAP2 POP POP JUMP JUMPDEST PUSH1 0x0 PUSH2 0xB9D PUSH1 0x17 DUP4 PUSH2 0xD84 JUMP JUMPDEST SWAP2 POP PUSH2 0xBA8 DUP3 PUSH2 0xFEF JUMP JUMPDEST PUSH1 0x20 DUP3 ADD SWAP1 POP SWAP2 SWAP1 POP JUMP JUMPDEST PUSH1 0x0 PUSH2 0xBC0 PUSH1 0x1D DUP4 PUSH2 0xD84 JUMP JUMPDEST SWAP2 POP PUSH2 0xBCB DUP3 PUSH2 0x1018 JUMP JUMPDEST PUSH1 0x20 DUP3 ADD SWAP1 POP SWAP2 SWAP1 POP JUMP JUMPDEST PUSH2 0xBDF DUP2 PUSH2 0xE16 JUMP JUMPDEST DUP3 MSTORE POP POP JUMP JUMPDEST PUSH1 0x0 PUSH1 0x20 DUP3 ADD SWAP1 POP PUSH2 0xBFA PUSH1 0x0 DUP4 ADD DUP5 PUSH2 0xB39 JUMP JUMPDEST SWAP3 SWAP2 POP POP JUMP JUMPDEST PUSH1 0x0 PUSH1 0xA0 DUP3 ADD SWAP1 POP PUSH2 0xC15 PUSH1 0x0 DUP4 ADD DUP9 PUSH2 0xB2A JUMP JUMPDEST DUP2 DUP2 SUB PUSH1 0x20 DUP4 ADD MSTORE PUSH2 0xC27 DUP2 DUP8 PUSH2 0xB57 JUMP JUMPDEST SWAP1 POP PUSH2 0xC36 PUSH1 0x40 DUP4 ADD DUP7 PUSH2 0xBD6 JUMP JUMPDEST PUSH2 0xC43 PUSH1 0x60 DUP4 ADD DUP6 PUSH2 0xBD6 JUMP JUMPDEST PUSH2 0xC50 PUSH1 0x80 DUP4 ADD DUP5 PUSH2 0xB48 JUMP JUMPDEST SWAP7 SWAP6 POP POP POP POP POP POP JUMP JUMPDEST PUSH1 0x0 PUSH1 0x20 DUP3 ADD SWAP1 POP PUSH2 0xC6F PUSH1 0x0 DUP4 ADD DUP5 PUSH2 0xB48 JUMP JUMPDEST SWAP3 SWAP2 POP POP JUMP JUMPDEST PUSH1 0x0 PUSH1 0x20 DUP3 ADD SWAP1 POP DUP2 DUP2 SUB PUSH1 0x0 DUP4 ADD MSTORE PUSH2 0xC8E DUP2 PUSH2 0xB90 JUMP JUMPDEST SWAP1 POP SWAP2 SWAP1 POP JUMP JUMPDEST PUSH1 0x0 PUSH1 0x20 DUP3 ADD SWAP1 POP DUP2 DUP2 SUB PUSH1 0x0 DUP4 ADD MSTORE PUSH2 0xCAE DUP2 PUSH2 0xBB3 JUMP JUMPDEST SWAP1 POP SWAP2 SWAP1 POP JUMP JUMPDEST PUSH1 0x0 PUSH1 0x20 DUP3 ADD SWAP1 POP PUSH2 0xCCA PUSH1 0x0 DUP4 ADD DUP5 PUSH2 0xBD6 JUMP JUMPDEST SWAP3 SWAP2 POP POP JUMP JUMPDEST PUSH1 0x0 PUSH1 0xA0 DUP3 ADD SWAP1 POP PUSH2 0xCE5 PUSH1 0x0 DUP4 ADD DUP9 PUSH2 0xBD6 JUMP JUMPDEST PUSH2 0xCF2 PUSH1 0x20 DUP4 ADD DUP8 PUSH2 0xBD6 JUMP JUMPDEST PUSH2 0xCFF PUSH1 0x40 DUP4 ADD DUP7 PUSH2 0xBD6 JUMP JUMPDEST PUSH2 0xD0C PUSH1 0x60 DUP4 ADD DUP6 PUSH2 0xBD6 JUMP JUMPDEST PUSH2 0xD19 PUSH1 0x80 DUP4 ADD DUP5 PUSH2 0xB39 JUMP JUMPDEST SWAP7 SWAP6 POP POP POP POP POP POP JUMP JUMPDEST PUSH1 0x0 PUSH2 0xD2D PUSH2 0xD3E JUMP JUMPDEST SWAP1 POP PUSH2 0xD39 DUP3 DUP3 PUSH2 0xE94 JUMP JUMPDEST SWAP2 SWAP1 POP JUMP JUMPDEST PUSH1 0x0 PUSH1 0x40 MLOAD SWAP1 POP SWAP1 JUMP JUMPDEST PUSH1 0x0 PUSH8 0xFFFFFFFFFFFFFFFF DUP3 GT ISZERO PUSH2 0xD63 JUMPI PUSH2 0xD62 PUSH2 0xF9B JUMP JUMPDEST JUMPDEST PUSH2 0xD6C DUP3 PUSH2 0xFDE JUMP JUMPDEST SWAP1 POP PUSH1 0x20 DUP2 ADD SWAP1 POP SWAP2 SWAP1 POP JUMP JUMPDEST PUSH1 0x0 DUP2 MLOAD SWAP1 POP SWAP2 SWAP1 POP JUMP JUMPDEST PUSH1 0x0 DUP3 DUP3 MSTORE PUSH1 0x20 DUP3 ADD SWAP1 POP SWAP3 SWAP2 POP POP JUMP JUMPDEST PUSH1 0x0 PUSH2 0xDA0 DUP3 PUSH2 0xE16 JUMP JUMPDEST SWAP2 POP PUSH2 0xDAB DUP4 PUSH2 0xE16 JUMP JUMPDEST SWAP3 POP DUP3 PUSH2 0xDBB JUMPI PUSH2 0xDBA PUSH2 0xF3D JUMP JUMPDEST JUMPDEST DUP3 DUP3 DIV SWAP1 POP SWAP3 SWAP2 POP POP JUMP JUMPDEST PUSH1 0x0 PUSH2 0xDD1 DUP3 PUSH2 0xDF6 JUMP JUMPDEST SWAP1 POP SWAP2 SWAP1 POP JUMP JUMPDEST PUSH1 0x0 PUSH2 0xDE3 DUP3 PUSH2 0xDF6 JUMP JUMPDEST SWAP1 POP SWAP2 SWAP1 POP JUMP JUMPDEST PUSH1 0x0 DUP2 ISZERO ISZERO SWAP1 POP SWAP2 SWAP1 POP JUMP JUMPDEST PUSH1 0x0 PUSH20 0xFFFFFFFFFFFFFFFFFFFFFFFFFFFFFFFFFFFFFFFF DUP3 AND SWAP1 POP SWAP2 SWAP1 POP JUMP JUMPDEST PUSH1 0x0 DUP2 SWAP1 POP SWAP2 SWAP1 POP JUMP JUMPDEST DUP3 DUP2 DUP4 CALLDATACOPY PUSH1 0x0 DUP4 DUP4 ADD MSTORE POP POP POP JUMP JUMPDEST PUSH1 0x0 JUMPDEST DUP4 DUP2 LT ISZERO PUSH2 0xE4D JUMPI DUP1 DUP3 ADD MLOAD DUP2 DUP5 ADD MSTORE PUSH1 0x20 DUP2 ADD SWAP1 POP PUSH2 0xE32 JUMP JUMPDEST DUP4 DUP2 GT ISZERO PUSH2 0xE5C JUMPI PUSH1 0x0 DUP5 DUP5 ADD MSTORE JUMPDEST POP POP POP POP JUMP JUMPDEST PUSH1 0x0 PUSH1 0x2 DUP3 DIV SWAP1 POP PUSH1 0x1 DUP3 AND DUP1 PUSH2 0xE7A JUMPI PUSH1 0x7F DUP3 AND SWAP2 POP JUMPDEST PUSH1 0x20 DUP3 LT DUP2 EQ ISZERO PUSH2 0xE8E JUMPI PUSH2 0xE8D PUSH2 0xF6C JUMP JUMPDEST JUMPDEST POP SWAP2 SWAP1 POP JUMP JUMPDEST PUSH2 0xE9D DUP3 PUSH2 0xFDE JUMP JUMPDEST DUP2 ADD DUP2 DUP2 LT PUSH8 0xFFFFFFFFFFFFFFFF DUP3 GT OR ISZERO PUSH2 0xEBC JUMPI PUSH2 0xEBB PUSH2 0xF9B JUMP JUMPDEST JUMPDEST DUP1 PUSH1 0x40 MSTORE POP POP POP JUMP JUMPDEST PUSH1 0x0 PUSH2 0xED0 DUP3 PUSH2 0xE16 JUMP JUMPDEST SWAP2 POP PUSH32 0xFFFFFFFFFFFFFFFFFFFFFFFFFFFFFFFFFFFFFFFFFFFFFFFFFFFFFFFFFFFFFFFF DUP3 EQ ISZERO PUSH2 0xF03 JUMPI PUSH2 0xF02 PUSH2 0xF0E JUMP JUMPDEST JUMPDEST PUSH1 0x1 DUP3 ADD SWAP1 POP SWAP2 SWAP1 POP JUMP JUMPDEST PUSH32 0x4E487B7100000000000000000000000000000000000000000000000000000000 PUSH1 0x0 MSTORE PUSH1 0x11 PUSH1 0x4 MSTORE PUSH1 0x24 PUSH1 0x0 REVERT JUMPDEST PUSH32 0x4E487B7100000000000000000000000000000000000000000000000000000000 PUSH1 0x0 MSTORE PUSH1 0x12 PUSH1 0x4 MSTORE PUSH1 0x24 PUSH1 0x0 REVERT JUMPDEST PUSH32 0x4E487B7100000000000000000000000000000000000000000000000000000000 PUSH1 0x0 MSTORE PUSH1 0x22 PUSH1 0x4 MSTORE PUSH1 0x24 PUSH1 0x0 REVERT JUMPDEST PUSH32 0x4E487B7100000000000000000000000000000000000000000000000000000000 PUSH1 0x0 MSTORE PUSH1 0x41 PUSH1 0x4 MSTORE PUSH1 0x24 PUSH1 0x0 REVERT JUMPDEST PUSH1 0x0 DUP1 REVERT JUMPDEST PUSH1 0x0 DUP1 REVERT JUMPDEST PUSH1 0x0 DUP1 REVERT JUMPDEST PUSH1 0x0 DUP1 REVERT JUMPDEST PUSH1 0x0 PUSH1 0x1F NOT PUSH1 0x1F DUP4 ADD AND SWAP1 POP SWAP2 SWAP1 POP JUMP JUMPDEST PUSH32 0x6D616E616765722070726976696C65676573206F6E6C79000000000000000000 PUSH1 0x0 DUP3 ADD MSTORE POP JUMP JUMPDEST PUSH32 0x6D696E696D756D20636F6E747269627574696F6E207265717569726564000000 PUSH1 0x0 DUP3 ADD MSTORE POP JUMP JUMPDEST PUSH2 0x104A DUP2 PUSH2 0xDC6 JUMP JUMPDEST DUP2 EQ PUSH2 0x1055 JUMPI PUSH1 0x0 DUP1 REVERT JUMPDEST POP JUMP JUMPDEST PUSH2 0x1061 DUP2 PUSH2 0xDD8 JUMP JUMPDEST DUP2 EQ PUSH2 0x106C JUMPI PUSH1 0x0 DUP1 REVERT JUMPDEST POP JUMP JUMPDEST PUSH2 0x1078 DUP2 PUSH2 0xE16 JUMP JUMPDEST DUP2 EQ PUSH2 0x1083 JUMPI PUSH1 0x0 DUP1 REVERT JUMPDEST POP JUMP INVALID LOG2 PUSH5 0x6970667358 0x22 SLT KECCAK256 SWAP8 SDIV 0x23 GAS LOG3 0xA8 0xB8 0xEE ADD 0x4C SWAP9 0xB9 PUSH29 0x5CA416B56136DA4A3162ED5C5A3DA4BE17FC764736F6C634300080600 CALLER "},"gasEstimates":{"creation":{"codeDepositCost":"856800","executionCost":"infinite","totalCost":"infinite"},"external":{"approveRequest(uint256)":"infinite","approvers(address)":"2868","approversCount()":"2429","contribute()":"51024","createRequest(string,uint256,address)":"infinite","finalizeRequest(uint256)":"infinite","getRequestsCount()":"2482","getSummary()":"infinite","manager()":"2600","minimumContribution()":"2473","requests(uint256)":"infinite","requestsCount()":"2539"}},"methodIdentifiers":{"approveRequest(uint256)":"d7d1bbdb","approvers(address)":"0a144391","approversCount()":"82fde093","contribute()":"d7bb99ba","createRequest(string,uint256,address)":"8a9cfd55","finalizeRequest(uint256)":"03441006","getRequestsCount()":"3410452a","getSummary()":"4051ddac","manager()":"481c6a75","minimumContribution()":"937e09b1","requests(uint256)":"81d12c58","requestsCount()":"fbfa4b7f"}},"storageLayout":{"storage":[{"astId":56,"contract":"campaign.sol:Campaign","label":"manager","offset":0,"slot":"0","type":"t_address"},{"astId":58,"contract":"campaign.sol:Campaign","label":"minimumContribution","offset":0,"slot":"1","type":"t_uint256"},{"astId":60,"contract":"campaign.sol:Campaign","label":"approversCount","offset":0,"slot":"2","type":"t_uint256"},{"astId":62,"contract":"campaign.sol:Campaign","label":"requestsCount","offset":0,"slot":"3","type":"t_uint256"},{"astId":65,"contract":"campaign.sol:Campaign","label":"requestIndex","offset":0,"slot":"4","type":"t_uint256"},{"astId":69,"contract":"campaign.sol:Campaign","label":"approvers","offset":0,"slot":"5","type":"t_mapping(t_address,t_bool)"},{"astId":74,"contract":"campaign.sol:Campaign","label":"requests","offset":0,"slot":"6","type":"t_mapping(t_uint256,t_struct(Request)54_storage)"}],"types":{"t_address":{"encoding":"inplace","label":"address","numberOfBytes":"20"},"t_address_payable":{"encoding":"inplace","label":"address payable","numberOfBytes":"20"},"t_bool":{"encoding":"inplace","label":"bool","numberOfBytes":"1"},"t_mapping(t_address,t_bool)":{"encoding":"mapping","key":"t_address","label":"mapping(address => bool)","numberOfBytes":"32","value":"t_bool"},"t_mapping(t_uint256,t_struct(Request)54_storage)":{"encoding":"mapping","key":"t_uint256","label":"mapping(uint256 => struct Campaign.Request)","numberOfBytes":"32","value":"t_struct(Request)54_storage"},"t_string_storage":{"encoding":"bytes","label":"string","numberOfBytes":"32"},"t_struct(Request)54_storage":{"encoding":"inplace","label":"struct Campaign.Request","members":[{"astId":41,"contract":"campaign.sol:Campaign","label":"recipient","offset":0,"slot":"0","type":"t_address_payable"},{"astId":43,"contract":"campaign.sol:Campaign","label":"description","offset":0,"slot":"1","type":"t_string_storage"},{"astId":45,"contract":"campaign.sol:Campaign","label":"value","offset":0,"slot":"2","type":"t_uint256"},{"astId":47,"contract":"campaign.sol:Campaign","label":"approvalCount","offset":0,"slot":"3","type":"t_uint256"},{"astId":49,"contract":"campaign.sol:Campaign","label":"complete","offset":0,"slot":"4","type":"t_bool"},{"astId":53,"contract":"campaign.sol:Campaign","label":"approvals","offset":0,"slot":"5","type":"t_mapping(t_address,t_bool)"}],"numberOfBytes":"192"},"t_uint256":{"encoding":"inplace","label":"uint256","numberOfBytes":"32"}}},"userdoc":{"kind":"user","methods":{},"version":1}}